:02000000ff00ff
:080002004c6174746963650030
:17000a00694345637562653220323031372e30382e32373934300069
:14002100506172743a20694345354c50314b2d534734380069
:1b003500446174653a2053657020313820323032302031383a32313a34390076
:0200500000ffaf
:040052007eaa997e6b
:02005600510057
:020058000105a0
:03005a00920020f1
:03005d006202b389
:030060007200b07b
:0300630082000018
:02006600110087
:02006800010194
:20006a00000000000000000000000010000000000000400000000000010000000000000421
:20008a000000000000001000000000000040000000001000000000000040000000000001b5
:1600aa0000000000000004000000000000100000000000004000ec
:2000c0000000000000000000000000020000000000000800000000000020000000000000f6
:2000e00080000000000002000000000000080000000002000000000000080000000000006c
:1701000020000000000000800000000000020000000000000800003e
:200117000000000000000000000000000000000000000000000000000000000000000000c8
:20013700000000000000000000000500000010000000000000000000000000010000000092
:160157000000000000000000000000000000000000000000000092
:20016d00000000000000000000000000000000000000000000000000000000000000000072
:20018d00000000000000000000000000000000000000000000000000000000000000000052
:1701ad0000000000000000000000000000000000000000000000003b
:2001c40000000000000000000000000000000000000000000000000000000000000000001b
:2001e4000000000000000000000000000000000000000000000000000000000000000000fb
:1602040000000000000000000000000000000000000000000000e4
:20021a000000000000000000000000000000000000000000000000000000000000000000c4
:20023a000000000000000000000000000000000000000000000000000000000000000000a4
:17025a0000000000000000000000000000000000000000000000008d
:2002710000000000000000000000000000000000000000000000000000000000000000006d
:200291000000000000000000000000000000000000400000000000000000000000004400c9
:1602b1000000000000000000000000000000000000000000000037
:2002c700000000000000000000000000000000000000000000000000000000000000000017
:2002e7000000000000000000000000000000000000000000000000000000000000000000f7
:170307000000000000000000000000000000000000000000000000df
:20031e000000000000000000000000000000000000000000000000000000000000000000bf
:20033e00000000000040000000000001000000000040000000000001000000000000040019
:16035e000000000000000000000000000000000000000000000089
:20037400000000000000000000000000000000000000000000000000000000000000000069
:20039400000000000000000000000000000000000000000000000000000000000000000049
:1703b400000000000000000000000000000000000000000000000032
:2003cb00000000000000000000000000000000000000000000000000000000000000000012
:2003eb0000000000000000000000000000c000000000000000000000000000000000000032
:16040b00000000000000000000000000000000000000000040009b
:200421000000000000000000000000000000000000000000000000000000000000000000bb
:20044100000000000000000000000000000400000000000000000000000000000000000097
:17046100000000000000000000000000000000000000380004000048
:20047800000000000000000000000000000000000000000000000000000000000000000064
:20049800000000000000000000000000000000000000000000000000000000000000000044
:1604b800000000000000000000000000000000000000000000002e
:2004ce0000000000000000000000000000000000000000000000000000000000000000000e
:2004ee000000010000000000000400010000010000000000000400000000000010000000d3
:17050e000000000000000000000000000000000000000000000000d6
:200525000000000000000000000000000000000000000000000000000000000000000000b6
:2005450000001000000000000000000000000000000000000000000000000000000008007e
:160565000000000000000000000000000000000000000000000080
:20057b00000000000000000000000000000000000000000000000000000000000000000060
:20059b000000000000000000000000000000000000400000000000004000000000000000c0
:1705bb00000000000000000000000000000000000000000000000029
:2005d200000000000c302000000000000000000000000000000000000000000000000000ad
:2005f2000000000000000000000000000000000000000000000000015ff0c00000000000d9
:1606120000000000000000000000000000000000000000000000d2
:200628000000000000c30000000000000000000000000000000000000000000000000000ef
:200648000000000000000000000000000000000000a000000000000000c0f0100000000032
:1706680000000000000000000000000000000000000000000000007b
:20067f00000000000c302000000000000000000000000000000000000000000000000000ff
:20069f0000000000000000000000000000028000000000000a000001c8f0c0000000000036
:1606bf000000a00000000000001000000000000a0020000000004b
:2006d5000000000000c3000000000000000000000000000000000000000000000000000042
:2006f5000000000000000000000000000000200000000000008000000000f0100000000045
:17071500000008000000000000008000000000008001c00000000004
:20072c00000000000c30200000000000000000000000000000000000000000000000000051
:20074c0000004000000000000000000000000000000000000000206548f0c00000000000d0
:16076c000000000003000000000000000000000000000000000074
:200782000000000000c3000000000000000000000000000000000000000000000000000094
:2007a20000000400000000000000000000000000f0000000000000420200f000000000000f
:1707c200000000000000000000000000000000000008000000000018
:2007d900000000000c302000000000000000000000000000000000000000000000000000a4
:2007f90000000000000000000000000000000000000000000000260548f0c00000000000bd
:160819000000000000000000000000000000000000000018f06061
:20082f000000000000c30000000000000000000000000000000000000000000000000000e6
:20084f000000000000000000000000000000000000000000000000420200f0000000000055
:17086f0000000000000000000000000000000000000000000f000063
:20088600000000000c302000000000000000000000000000000000000000000000000000f6
:2008a60000000000000000000000000000000000000283c00000000168f0c00000000000d4
:1608c600000000000000000000000000000000000000000000001c
:2008dc000000000000c3000000000000000000000000000000000000000000000000000039
:2008fc00000000000000000000000000000000000000003c000000000000f00000000000b0
:17091c000000000000000000000000000000000000000000000000c4
:20093300000000000c30200000000000000000000000000000000000000000000000000048
:200953000000000000000000000000000000000000023c140000200168f0c00000000000f9
:16097300000000000000000000000000000000000000000000006e
:200989000000000000c300000000000000000000000000000000000000000000000000008b
:2009a90000000000000000000000000000000000000043c0000003400000f00000000000f8
:1709c900000000000000000000000000000000000000000000000017
:2009e000000000000c3020000000000000000000000000000000000000000000000000009b
:200a000000000000000000000000000000000000000000000000060168f0c000380000007f
:160a200000000000000000000000000000000000000000000000c0
:200a36000000000000c30000000000000000000000000000000000000000000000000000dd
:200a56000000000000000000000000000000000000000000000000030200f010000000007b
:170a7600000000000000000000000000000000000000000000000069
:200a8d00000000000c302000000000000000000000000000000000000000000000000000ed
:200aad0000000000000000000000000000000000000000000c002061e850c10000000000a3
:160acd00000000000000af04104010000000000000000000000000
:200ae3000000000000c3000000000000000000000000000000000000000000000000000030
:200b03000000000000000000000000000000000000000000000003403e0050000000000001
:170b230000000000000010f0000402000000000000000000000000b5
:200b3a00000000000c3020000000000000000000000000000000000000000000000000003f
:200b5a000000000000000000000000000000000019b2000000000001c8f0c0000000000037
:160b7a0000000000000000000002800000000000000000000000e3
:200b90000000000000c3000000000000000000000000000000000000000000000000000082
:200bb0000000000000000000000000000000000001857d00010000000000f04000000000f1
:170bd00000000000000000000000000000000000000000000000000e
:200be700000000000c30200000000000000000000000000000000000000000000000000092
:200c07000000000000000000000000000002800b811a1dc02a00000148f0c028000000007d
:160c270000000000000000000000000000000000000003ecf000d8
:200c3d008000000000c3000000000000000000000000000000000000000000000000000054
:200c5d000000000000000000000000000000200098fde7b8008000000000f00200000000b1
:170c7d00000000000000000000000000000000000000000fc500008c
:200c9400000000000c302000000000000000000000000000000000000000000000000000e4
:200cb400000000000000000000000000000100200903bc100000066548f0c00000000000c4
:160cd400000000000000000000000000000000000000000000000a
:200cea000000000000c3000000000000000000000000000000000000000000000000000027
:200d0a0000000000000000000000000000003004019003c0000000020200f010000000003d
:170d2a000000000000000000000000000000000000000000000000b2
:200d4100000000000c30200000000000000000000000000000000000000000000000000036
:200d61000000000000000000000000000000000180073c18000006054850c00000700000c3
:160d8100000000000000000000000000000000000000000000005c
:200d97000000000000c3000000000000000000000000000000000000000000000000000079
:200db70000000000000000000000000000000000080003c0000000020e00501000000000e1
:170dd700000000000000000000000000000000000000000000000005
:200dee00000000000c30200000000000000000000000000000000000000000000000000089
:200e0e0000000000000000000000000000000005817a940000000c01e850c1000000080220
:160e2e0095000000000000000000000000000000000c0400000009
:200e44000000000000c30000000000000000000000000000000000000000000000000000cb
:200e64000000000000000000000000000000000000a0c140000000001c0050000000005011
:170e840016801000000000000000000000000000000003400000006e
:200e9b00000000000c302000000000000000000000000000000000000000000000000000db
:200ebb000000000000000000000000000000000818b60000800000016850c1000000000047
:160edb0000000000000000000000000000000000001600000000eb
:200ef1000000000000c300000000000000000000000000000000000000000000000000001e
:200f110000000000000000000000000000000000b0078100010000000c005000000000002b
:170f3100000000000000000000000000000000000000200000000089
:200f4800000000000c3020000000000000000000000000000000000000000000000000002d
:200f6800000000000000000000000000000000001af75dc040002c0168f0c10000000000b5
:160f88000000000000000000000000000000000000000000000053
:200f9e000000000000c3000000000000000000000000000000000000000000000000000070
:200fbe000000000000000000000000000000000010e1ebb8000000400200f000000000004d
:170fde000000000000000000000000000000000000000000000000fc
:200ff500000000000c30200000000000000000000000000000000000000000000000000080
:2010150000000000000000000000000000030008018029500c002061e8f0c1800000000010
:161035000000000000000000000000000000000000003000000075
:20104b000000000000c30000000000000000000000000000000000000000000000000000c2
:20106b000000000000000000000000000000200050a10168000000400200f00000000000b9
:17108b0000000000000000000000000000000000000000000000004e
:2010a200000000000c302000000000000000000000000000000000000000000000000000d2
:2010c20000000000000000000000000000000809981ac0402140000348504080000000008f
:1610e20000000000000000000000000000000000000000000000f8
:2010f8000000000000c3000000000000000000000000000000000000000000000000000015
:20111800000000000000000000000000000000009803b000000200002c00504000000000ae
:171138000000000000000000000000000000000000000000000000a0
:20114f00000000000c30200000000000000000000000000000000000000000000000000024
:20116f000000000000000000000000000002800508331dc02a00000000000028000000006f
:16118f000000000000000000000000000000000000003800000012
:2011a5000000000000c3000000000000000000000000000000000000000000000000000067
:2011c5000000000000000000000000000000200009097fb80080000000000002000000001f
:1711e5000000000000000000000000000000000000000240000000b1
:2011fc00000000000c30200000000000000000000000000000000000000000000000000077
:20121c000000000000000000000000000001000f0802bc1000a1200000000000000000000b
:16123c0000000000000000000000800000000000400000000000dc
:201252000000000000c30000000000000000000000000000000000000000000000000000b9
:2012720000000000000000000000000000003000909043c0000008400000000000000000c1
:1712920000000000000000000000000000000000080000000000003d
:2012a900000000000c302000000000000000000000000000000000000000000000000000c9
:2012c900000000000000000000000000000040001c03bc10000000000000000000000000da
:1612e90000000000000000000000000000000000000000000000ef
:2012ff000000000000c300000000000000000000000000000000000000000000000000000c
:20131f0000000000000000000000000000000400010003c0000000000000000000000000e6
:17133f00000000000000000000000000000000000000000000000097
:20135600000000000c3020000000000000000000000000000000000000000000000000001b
:20137600000000000000000000000000000000001c9f8cc40000000000000000000000004c
:16139600000000000000000000000000000000000000040000003d
:2013ac000000000000c300000000000000000000000000000000000000000000000000005e
:2013cc000000000000000000000000000000000011836bfc00000000000000000000000006
:1713ec0000000000000000000000000000000000000002c000000028
:20140300000000000c3020000000000000000000000000000000000000000000000000006d
:20142300000000000000000000000000000000080000000000a00004000000000000efbb53
:16144300d5020000000000000003000000000000000000000000b9
:201459000000000000c30000000000000000000000000000000000000000000000000000b0
:2014790000000000000000000000000000000000f000000000000002c0000000000010bcd5
:17149900140810000000000000000000000000000000000000000010
:2014b000000000000c302000000000000000000000000000000000000000000000000000c0
:2014d000000000000000000000000000000000078100000000000000000000000000e00094
:1614f00000000000000000000000000000000000000001f93301b8
:201506000000000000c3000000000000000000000000000000000000000000000000000002
:20152600000000000000000000000000000000000080000000000000000000000000000025
:17154600000000000000000000000000000000000000002d99300098
:20155d00000000000c30200000000000000000000000000000000000000000000000000012
:20157d000000000000000000000000000003000000169dc02c000000000000310001c000ba
:16159d000000000000000000000000000000000000000000000038
:2015b3000000000000c3000000000000000000000000000000000000000000000000000055
:2015d30000000000000000000000000000002000008b637400080000000000022800000044
:1715f300000000000000000000000000000000000000c00000000021
:20160a00000000000c30200000000000000000000000000000000000000000000000000064
:20162a00000000000002bc1000000000000000700080295001000000e00080000000000008
:16164a0000000008000000000000081e000000000004005ca0401c
:201660000000000000c30000000000000000000000000000000000000000000000000000a7
:2016800000000000000043c04000000000000002000b01680000000002000020000000006f
:1716a0000000008000000000000000f180000000000060050f510479
:2016b700000000000c302000000000000000000000000000000000000000000000000000b7
:2016d7000002800001063c10000000000002800000033c1000000000c00080280080006302
:1616f700c100a0000000af040280070e133d580a00142c1bd14014
:20170d000000000000c30000000000000000000000000000000000000000000000000000f9
:20172d000000200000b043c04000000000002000000043c02000000002e00002030100005e
:17174d003c000800000000f00020000805c140018002677dde2010ae
:20176400000000000c30200000000000000000000000000000000000000000000000000009
:20178400000100001e00000000000000000300000000000000200000c100800010000000b2
:1617a400000000016700000000002800163d582000002819d14181
:2017ba000000000000c300000000000000000000000000000000000000000000000000004c
:2017da0000003000019000000000000000003038000000000004000000f0000020000000b2
:1717fa000000000000400000000000f0018140000000041dae2200f5
:20181100000000000c3020000000000000000000000000000000000000000000000000005b
:201831000000000000073c1000000000000000001c06bc1000800005e00080000000000071
:1618510000001000000000000000000017bd5000000c7a6cf54026
:20186700c000000000c30000000000000000000000000000000000000000000000000000de
:2018870000000000000043c02000000000000000010043c020040002c0e000000000000054
:1718a7000000010000000000000000900bc140410000242d050200f4
:2018be00000000000c302000000000000000000000000000000000000000000000000000ae
:2018de00000000000000000000000000000000000000000000003e69610080000000007be7
:1618fe00c1000000000000000000080f7bbd5031000000f8f54016
:201914008000000000c3000000000000000000000000000000000000000000000000000070
:201934000000000000000000000000000000000000e000000000034742f000000000000433
:171954003c0000800000000000000030d1c14000000003de0a0100d2
:20196b00000000000c30200000000000000000000000000000000000000000000000000000
:20198b00000004000000000000000000000004000007bc1000500020e0008000450000004c
:1619ab00000005006000af04000400007f3d58001000267cf5400f
:2019c1000000000000c3000000000000000000000000000000000000000000000000000043
:2019e1000000000000c000000000000000000000009003c0000a6007c2e00000032000009d
:171a010000000020000010f0000000f005014000000247af05030078
:201a1800000000000c30200000000000000000000000000000000000000000000000000052
:201a3800000040000000000000008000000000001e00000000020000c1008000000000006d
:161a5800000000000001cf04000283801ebd5000001605e1e76031
:201a6e004000000000c3000000000000000000000000000000000000000000000000000055
:201a8e0000000000000000000000140000000000010000000001004002f0000000000000f0
:171aae0000000000000000f000000000a78280840063e304c81000e2
:201ac500000000000c302000000000000000000000000000000000000000000000000000a5
:201ae500000300000000000000000000000300010000000000800420c000800000001000e6
:161b050000000c00000000000300011e933d500c002001caf54050
:201b1b000000000000c30000000000000000000000000000000000000000000000000000e7
:201b3b0000002040000000000000000000002040080000000000002000e0000004000f00af
:171b5b00000000e00000000000204001998140848102c01d050204e9
:201b7200000000000000000000000000000000000000000000000000000000000000000053
:201b920000000000000000000000000000000040017b5dc021006001c8e350000000157a4e
:161bb200c0000441e7f5c33000280700b7bd5400000000e10080f1
:201bc8000000000000000000000000000000000000000000000000000000000000000000fd
:201be800000000000000000000000000000000200089b7740000044006cdb04000090e1bd0
:171c0800ac0010002663fe93100000180f01404000000282d00000e3
:201c1f000000000000000000000000000000000000000000000000000000000000000000a5
:201c3f0000000000000000000000000000028000000000000a04000000000000308011a88c
:161c5f001400a00803e5ec040281a781573d5010000079c99680e4
:201c750000000000000000000000000000000000000000000000000000000000000000004f
:201c950000000000000000000000000000002000000000000088000000000000000d095819
:171cb50014004801407ed9cf20600508c342800000014002c96010c7
:201ccc000000000000000000000000000000000000000000000000000000000000000000f8
:201cec00000000000000000000000000000300000803bc1000000000000000001051e57a3e
:161d0c00c008000147c7ed140000010137bd5810200005689680e8
:201d22000000000000000000000000000000000000000000000000000000000000000000a1
:201d420000000000000000000000000000001000500043c00000000000000000002b1bb820
:171d62002c000000006e7b8b08000008e5c1400000000280e9600009
:201d790000000000000000000000000000000000000000000000000000000010000000003a
:201d99000000000000000000000000000000005100ba8cc0008000000000000080000000d3
:161db900000000174006ac0600028780bebd580000202969968061
:201dcf000000000000000000000000000000000000000000000000000000000100000000f3
:201def0000000000000000000000000000000000000777fc04040000000000000000000052
:171e0f00000000009c2bf8fc080000000101404000e2c002e960008a
:201e260000000000000000000000000000000000000000000000000000000000000000009c
:201e4600000010000000000000000000000000011e00000000000000000000000800057ac6
:161e6600c0000000632da33010280788973d5a000140006896808f
:201e7c00000000000000000000000000000000000000000000000000000000000000000046
:201e9c000000000000000000000000000000000000900000000002c00000000002800fdb68
:171ebc00ac00000002015acc0000000103428000001ac302d960005c
:201ed30000000000000000000000000000001000000000000040000000000001000000009e
:201ef30000000400000000000000000000000407810000000090000000000002c00001be2e
:161f13000c000102031eae242004000e13bd5860500e70699680af
:201f2900000000000000000000000000000000000000000000000000000000000000000098
:201f49000000000000000000000000000000000050f000000000000000000000100000d355
:171f690090c0000a2c41d07420000071b30280000a0027c0f9600046
:201f8000000000000000000000000000000000000000000000000000000000000000000041
:201fa0000000002000000000000000000000000500ba9dc04000000000000000001800008d
:161fc00000000003e036cd140800870033bd50000a1c214896809d
:201fd6000000000000000000000000000000010000000000000000000000000000000000ea
:201ff6000000000400000000000000000000000000853b7400000003c00000002880000028
:17201600000000002e20db47200020500181400100000742c960007e
:20202d00000000000000000000000000000000000000000000000000000000000000000093
:20204d0000000000000000000000000000030008000000000c008000000000002880013ef5
:16206d000c00c000678000000301971d7e3d500100000048968088
:20208300000000000000000000000000000000000000000000040000000000001000000029
:2020a3000000004000000000000000000000204070f000000081000000000000040500dbb8
:1720c30090c00810006000000022c0d0ad41402111024242f960004d
:2020da000000000000000000000000000000000000000000000000000000000000000000e6
:2020fa00000000000000000000010000000000000818002000000000000000000050016bc9
:16211a00c0000000601610080028001e06ac5400014401c99680f0
:2021300000000000000000000000000000000000000000000000000000000000000000008f
:20215000000000000000000000000800000000000000a8000008000380000000000000b381
:172170009400000006000a00000120010d69c88000082000d9604033
:20218700000000000000000000000000000000000000000000010000000000000000000037
:2021a700000000000000000000004000000000000e3a65a00a00000018f040280080ab6284
:1621c700940000c2069e9968028057007e3d580a0e9c01e9968067
:2021dd000000000000000000000000000000000000000000000020000000000000000000c2
:2021fd000000000000000000000008000000000001003a58018001c0000f0002000f105a5b
:17221d00060000015400299600200200c941400480100002e960083d
:2022340000000000000000000000000000000000000000000000000000000000000000008a
:20225400000000000000000000000000000000079e3225a0040000000000000000500b74fb
:1622740001010402068e89680000871e173d58004e0e2c68968070
:20228a00000000000000000000000000000000000000000000000000000000000000000034
:2022aa000000000000000000000000000000000808003a58804001c0000000000000007b76
:1722ca00100840a024000d960040000903c28004082027c0e9600054
:2022e1000000000000000000000000000000000000000000000000000000000000000000dd
:20230100000000000000000000000000000000001f5265a001880000000000000081fb2e13
:162321000c000021400499680020001a3ebd58010220696996809c
:20233700000000000000000000000000000000000000000000000000000000000000000086
:202357000000000000000000000000000000001001f0b258801400000000000000091fdac5
:17237700a0c0000014000e9601000000f94140000803c002f9600096
:20238e0000000000000000000000000000000000000000000000000000000000000000002f
:2023ae0000000000000000000000000000000107805a65a8010080000af0400380f5d76bab
:1623ce004000000006d499680001081c1b3d500140000148968170
:2023e4000000000000000000000000000000000000000000000000000000000000000000d9
:20240400000000000000000000000000000000000800b65800002000000f00001003185bed
:172424007800000000240e96000030b10342808002000002f96000de
:20243b00000000000000000000000000000000000000000000000000000000000000000081
:20245b000000000000000000000000000000000f0f7265a000c000000000000005b8eb2e36
:16247b000c0000a0461c99680000011c773d5800400c05e99681c2
:2024910000000000000000000000000000000000000000000000000000000000000000002b
:2024b10000000000000000000000000000000000d0d0b658040c000000000000002790fa9c
:1724d100a0c0000000400d96010000f1f941400002003340a96000c7
:2024e8000000000000000000000000000000000000000000000000000000000000000000d4
:20250800000000000000000000000000000000071f1265a0100400000000000000101376c9
:16252800c0000001c00489680003839a3bbd5400002439c8968080
:20253e0000000000000000000000000000000000000000000000000000000000000000007d
:20255e000000000000000000000000000000000001d0ba58000000000000000000000f3635
:17257e00ec02000002000b9600023a18050280200802e302b96000b2
:20259500000000000000000000000000000000000000000000000000000000000010000016
:2025b50000000000000000000000000000000003005a25a40c2000000000000000301b2e3b
:1625d5000c000062628689680300078083ec500c01247b48d1405b
:2025eb000000000000000000000000000000000000000000000000000000000000000000d0
:20260b00000000000000000000000000000000007800be58008000000000000000000d9afa
:17262b00a0c0000066400d9600200118877dc801820ee78c847004ee
:202642000000000000000000000000000000000000000000000001813400020000002ea2f0
:2026620004000000010000000000000000000005005265a800012024eaa340000900e53fb0
:16268200c000020ae69c99680420001bfabd5420229e04cef560a2
:202698000000000000000000000000000000000000000000000000003b0100000000006b7b
:2026b8000000000000f000000000000000000000f800a658100009c680aa301000001a9a1f
:1726d8001400004156002e9604000000abc14000047003550500807b
:2026ef000000000000000000000000000000000028000000280000006aa100a000000000d0
:20270f00000280000000000000000000000280078e3225a00a00200168f560281081e5a3f1
:16272f000800a4016006896a0283571fbe3d582aa08002e8f540d7
:2027450040000000000000000000000000000000040000000200000032550008003c000063
:2027650000002000000000000000000000002000d1b02a5800800140150a0012000100d747
:17278500b0400800003c289600228200e5c28000841402af0a0080ad
:20279c000000000000000000000000000000001400000000000000013000000000020000d6
:2027bc00000100000000000000000000000000000a1a25a0000016781eb140000018172e19
:1627dc0094000003604c89680000000106f45040403e035ef54014
:2027f20040000000000000000000000000000000200000000000000038014000002440008a
:2028120000001000000000000000000000000000d1c0ae5800040b4035e7200c10008d9734
:17283200414000020c282c9600028010bf7788800008c28c0a0200e4
:202849000000000000000000000000000000000000000000000078006b110000000000007b
:2028690000000000000000000000000000000007001225a4000e1c065cf56002831817a137
:162889009c0004c2000e896800082f80fa3d5800460023f8f540fc
:20289f00800000000000000000000000000000000000000000000080327200000000000075
:2028bf000000000000000000000000000000000008002258000003e28c05000010100edff4
:1728df009900008014000c9600003cf8d9c280000214042d0a001063
:2028f600000000000000000000000000000000000400000000009800000000000000000026
:202916000000000000000000000000000000000f003a65a00000603d5af54100007801fbb2
:16293600d500000a66d68968002b980e9a3d5000001e04eaf54145
:20294c000000000000000000000000000000000002800000000005000000000000000000e4
:20296c00000000000000000000000000000000285800a2580000a3c7ad050000000080989d
:17298c002800100066240896000038700bc14001000003d7050084bc
:2029a3000000000000000000000000000000000e0000000000008000000000000002000084
:2029c3000000000000000000000000000000280f1a5a25a000041e01ecf551000000197b9b
:1629e300d580000a001499680020000176bd5200003e24eef5403f
:2029f900000000000000000000000000000000002000000000000b00000000000000000093
:202a19000000000000000000000010000000010050003258800000602e050000004008d87f
:172a39001400000154000896000100f0f58140010010e78405001443
:202a50000000000000000000000000000000000000f8050000000000000000000000000069
:202a700000000080000000000000000000000000003a65a000200e0168f540400000037bfd
:162a9000d5040011c0148968000280081b3d5000200e06def54008
:202aa6000000000000000000000000000000000000010050000000000000000000000000bf
:202ac60000000000000000000000000000000000700032580000c0201d0a0000000100945a
:172ae6002808000002202e9600000400034140200c04229d05020441
:202afd0000000000000000000000000000000000074c000230000000000000000000000034
:202b1d00000300001e07bc100008000000030001007a74500c2e003019d1413200d9b522e3
:162b3d009500c0e0600c8d140700039eff3d544d0e2e076cf560b7
:202b530000000000000000000000000000000000037d0800060000000000000000000000d4
:202b730000002030010043c004000000000020000807222c0484000654ae200210050a9408
:172b93001542080002026a8b002000018f0280209011e28f050080ea
:202baa000000000000000000000000000000000005caf0c0000001b00000000000000000db
:202bca00000000000000000000000000000040000af220c00020042aed0040400001a3046c
:162bea0002000040e01c1008001b0000000000000a20006a830845
:202c000000000000000000000000000000000000024190f0100000080000000000000000d9
:202c20000000000200000000000000000000040001076a0c000400040f8402101000000a49
:172c40004000000402200f0000020000000000000202c2d6e8300052
:202c5700000000000000000000000000000a000001c8f0c028000007a1dc02a0000000008c
:202c7700000000500000000000000000000000000072ac000a20007aca83000102d807a656
:162c97005a00000000148968028001800000000000002a4e330812
:202cad0000000000000000000000000000008000000000f012000000de7b800800000000a4
:202ccd00000000021400000000000400000000000097a5c0008402441e9830002b150c0bca
:172ced00a582000000002f9620200000f00000000000043fecc000c5
:202d04000000000000000000000000000000000065c8f0c03000001073c100c0000000009e
:202d2400000000000000000000000000000000050e7220c000009402d980600100d80522db
:162d44005a2002020384996800502f809e9280000094686a830ad1
:202d5a0000000000000000000000000000000000024200f00300000a043c000400000000d4
:202d7a0000000000f0000000000000000000000009036a0c200014233f800090080b00030b
:172d9a00658000403c400d96008480b00f2a740000134436083000b8
:202db100000000000000000000000000000000260548f0c000000000000000000000200ab5
:202dd10054030000000000000000000000000003187aac0000000004ca8300000131d5a250
:162df1005a000001c01c8968040008009f2ac000000039db81007a
:202e070000000000000000000000000000000000420200f00000000000000000000001c0b6
:202e27005a0010000000000000000000000000000907a5c0000000037698300000200a023f
:172e47006582000002002d960002281083b02c01080000159a5080a7
:202e5e00000000000000000000000000000000000168f0c000000007a9400000000000004b
:202e7e00000000000082bd40400000000000000800f220c00000002568d000000080a7a275
:162e9e005a000a00039e996800005700dfbd5840aca0026a830052
:202eb40000000000000000000000000000000000000000f0000000000c14000000003c00b2
:202ed40000000000000103e88200000000000000d00d6a0c0000000217de0000000b1b0af6
:172ef400a588000800002a96200000000bc140000413427ee83008af
:202f0b00000000000000000000000000000000000168f0c00000008000000000000001cf3d
:202f2b00040000000000000000000000000000000052ac0000200038ca830000110005a623
:162f4b005a000a00038499680002890a3fbd5440000000cfd000c0
:202f610000000000000000000000000000000000000000f0000000100000000000243c00f0
:202f8100f000000000000000000a0000000000000007a5c020044240069830004180000a8b
:172fa100e582004004382d96008000f895828000000000149e0008aa
:202fb800000000000000000000000000000000260568f0c0000001e00000000000000000d5
:202fd800000000000000000000000000000000080ef220c000000005c8d000000000072627
:162ff8005a0000000394996800200040bbbd58004c06286a83003a
:20300e0000000000000000000000000000000000420200f01000000000000000000000005e
:20302e000000000000000000000000000000000050096a0c00000003d7de000000210002d8
:17304e00258020001c780e96080100008bc140040a09402ee83080bc
:20306500000000000000000000000000000c000063e850c0300001a0000000c0000001cf83
:2030850004000020000000000000000000002051085aac0000000038000000000000f32637
:1630a5005a000a61c6ce99680323051d000000004000204fd000f4
:2030bb0000000000000000000000000000000001401e00501200000b0000000800240010ed
:2030db00f0000001000000000000000000000000000725c02000024000000000000d1d026a
:1730fb002580404024740e9600a10009d0000000080006949e008023
:203112000000000000000000000000000000000001c8f0c000008183b000000000001ff75a
:20313200700000000007bc10000000000000100f18134cc0002034604c850002308017a6f0
:163152005a000000001c9968000008083ebd58002016006e2101c7
:2031680000000000000000000000000000000000000000f04000051f56e00000000001eece
:20318800ee000100000043c040000000000002809001a64c200008e28698500000050e0263
:1731a800a581400000002a96040000519301402000000003c21000cc
:2031bf00000000000000000000000000000a001e05c8f0c0000000ed68cc00a0000001afda
:2031df00040280071e0000000000000000000000015a8cc0000000336a0500290039b1a623
:1631ff005a20a001c01c9968068180017ebd500a009c316ab0033b
:2032150000000000000000000000000000008000038000f00000050fdaffc00800000010e1
:20323500f000200008000000000000000000000000cd6b30200014002705000209800c0af8
:17325500e580080236000b9600200090a98140208014240e0b000011
:20326c00000000000000000000000000000000006548f0c00000d9b7bc0000c000000000d9
:20328c000003000000063c1000000000000000010a7a20c28040002b48b002000200152248
:1632ac005a800000001e99680050881b0728d0000a340000a540fe
:2032c20000000000000000000000000000000000020200f00000070a1ae0000c00000000e1
:2032e20000001000000003c00000000000000000d9b1410c000a00069f0b000000430f0a0c
:17330200258000000000289600061230a9214c240800403c05a000a6
:2033190000000000000000000000000000000026034850c0000019ffe08000000003800018
:20333900000000001a07bc10000000000000000500868840100000295b331000005817a24c
:163359005a000001421e99680000091ef63d58000c16616ab0084b
:20336f0000000000000000000000000000000001c00600500000009e72c000000000400017
:20338f0000000000010003c0400000000000000038f5284800000006c7bcc00000500a03d7
:1733af00e5820000026c2c96000000500342800000003386ab0000f7
:2033c6000000000000000000000000000000000003e850e00000818762008800000040009a
:2033e6000000000001063c1000000000000000019a132c00800086014c830200301011a6cb
:163406005a000014e206896800030780f2bd5040002c376a830050
:20341c0080000000000000000000000000000000000c0052000001103c000010000038001d
:20343c000000000000d043c00000000000000000000101c0200010001e08300000008903c9
:17345c002582000036400c96000080980d01402400016676a430005f
:2034730000000000000000000000000000000020036850c00000180965dc0000020000003a
:20349300000000000007bc18000000000000004000172940000600005cc30003050001262a
:1634b3005a40000b4016996800000b813f3d5800e200716ab0003a
:2034c9008000000000000000000000000000000140040052000000807f3b800000140000fe
:2034e90000000000000043c0000000000000000200836460200002400e981000102d000a18
:17350900658000006e002e9600001878e38140800a00002eab0000fd
:20352000000000000000000000000000000000260168f0c00000801129dc000002627ce3f3
:2035400030000000000000000000000000000005885b1d4400001c784c85000002700722f2
:163560005a00040046dc896800000780babd5000801c3df9ea00da
:2035760000000000000000000000000000000000400000f2000009081abb8000001c68dd3c
:20359600ff0000000000000000000000000000000507e914000000243e985000004d8b03e8
:1735b600a58800a01e280f96000000f8014140200400022ea8500080
:2035cd00000000000000000000000000000c00200068f0c00000f810000000c0034040004f
:2035ed00000300059c06bc1800000000000000000013a940212004785ec3003020b8032338
:16360d004580c00406ce8d141328001a82f45800814027df8040ff
:2036230080000000000000000000000000000000400200f28000090900000008001c3800e5
:2036430000002000088043c0000000000000000010036460000400240f981002000b005b9e
:1736630022c0080ab42acc8b20200000937f88800408466de0000826
:20367a000000000000000000000000000000008003485048000080130002000001c0000077
:20369a00000000000002bc1000000000000000050a8029500000002969f0000000000f3f6a
:1636ba00c0000000428583301000070ebea8000021206ed88a0024
:2036d00000000000000000000000000000000014000400504800090c000000800002000093
:2036f00000000000000043c0000000000000000004f10168000003c015ea0000008000bb5c
:1737100014000008006e7acc0800000801c3d400040d46b7fe5000ce
:20372700000000000000000000000000000a002000000000000050138002000000000de77f
:2037470070028000000000000000000000028000000000000a00007800a54028007803b232
:163767000c0100000286c8302003051cf387c00a415e7948d10204
:20377d000000000000000000000000000000800240000000000000090ac000000000007f18
:20379d00dd00200000000000000000000000200030000000008003c02c05a002000009bfe1
:1737bd00a0c00400006cf083080000f109a4a8008a0be0010d1000d1
:2037d40000000000000000000000000000000c2000000000000050118002000000000000c6
:2037f400000300000007bc10000000000000000f1802bc100000946168b00000000003bf1b
:1638140040010003400082100010078a972f0084009e7858a74246
:20382a0000000000000000000000000000000000400000000000000c0240000000000000f0
:20384a0000001000008003c04000000000000000180003c0000010000dab0000020000b373
:17386a00780000003e25da120002800003026000c010240e05280466
:203881000000000000000000000000000000000000000000000000038002000000000000a2
:2038a100000000000000000000014000000000010002bc100000202018f0400000000bb2b2
:1638c1000c0100000006cb0020100001000000004c006000000036
:2038d70000000000000000000000000000000000000000000000000a02c000000000000005
:2038f70000000000000000000000080000000000000003c0000002c4000f0000001f00bf33
:17391700a0c00000242f60b00800000090000000000004000000003a
:20392e000000000000000000000000000000400000000000000058058002000003c02de387
:20394e0030004000010000000000000000000000001269400000203368b000010200ff3f81
:16396e00c0000002e07dcc30000380007606c0004a0078000000a7
:203984000000000000000000000000000000020000000000000000000a40000000163cdca9
:2039a400ff00040000c00000000000000000000010036814200003c40dab000028401abad6
:1739c4005400000006227c42000000000d78ac000203c400000000b8
:2039db00000000000000000000000000000000000000000000008005000200000000000045
:2039fb00000000000880295000000000000000000002bc10000004025b0040000038e3ba67
:163a1b00940000000786cb0000008b09baab04800020025ce0408e
:203a310000000000000000000000000000000000000000000000050c02c00000003c000066
:203a510000000000000b01680000000000000000000043c0000002600d90800000091a7fbd
:173a7100c600000000406fb0000008f0e1827000000140049f4a0020
:203a880000000000000000000000000000000c0000000000000000050402000000004000c7
:203aa800000000000007bc10000000000000000801f384102000860000a540010080fde4ae
:163ac800010000e0407dac3000412b8c000000000000380000003e
:203ade000000000000000000000000000000000000000000000000000a4000000000380046
:203afe0000000000000043c0800008000000000030ef6400000010003405a00008050a7327
:173b1e00c200000002226c42000405f80000000000000000000000fb
:203b3500000000000000000000000000000c000000000000000000010002000000068000db
:203b5500000300001c07bc10000000000000000008000000000005000ef040002839cffce7
:163b750081000000000cd850000180000000000400000000000000
:203b8b0000000000000000000000000000000000000000000000000002c0000000003c001c
:203bab0000002000118043c000000000000000000000000000000020000f00000380801afa
:173bcb008000600140015b8508002800000000004800000000000069
:023be2000000e1
:023be4001101cd
:023be6000101db
:203be800000000000000000000000010000000000000400000000000010000000000000468
:203c08000000000000001000000000000040000000001000004000000000000100000000fb
:163c28000000000000000400000000000010000000000000400032
:203c3e0000000000000000000000000200000000000008000000000000200000000000003c
:203c5e008000000000000200000000000008000000000200000000000000000000000000ba
:173c7e000000000000000080000000000002000000000000080000a5
:203c950000000000000000000000000000000000000000000000000000000000000000000f
:203cb500000000000000000000000000000000000000000000400380000000010002000029
:163cd5000000000000000000000000000000000040000000000099
:203ceb000000000000000000000000000000000000000000000000000000000000000000b9
:203d0b000000000000000000000000000000000000000000000000b8000000000000e00000
:173d2b00000000000000000000000000000000000000000000000081
:203d4200000000000000000000000000000000000000000000000000000000000000000061
:203d6200000000000000000000000000000000000000000000800180070000020000000037
:163d82000000000000000000000000000000000000000400000027
:203d980000000000000000000000000000000000000000000000000000000000000000000b
:203db8000000000000000000000000d000000000000000000000000800d000000000000340
:173dd800400000000000000000000000000000000000000000000094
:203def000000000000000000000000000000000000000000000000000000000000000000b4
:203e0f0000000000000000000000000000000000000000000000000000000000000400008f
:163e2f0000000000000000000000000000000000000b0100000071
:203e450000000000000000000000000000000000000000000000000000000000000000005d
:203e650000000000000000000000000000000000000000000000000000000000000200003b
:173e85000000000000000000000000000000000000008000000000a6
:203e9c00000000000000000000000000000000000000000000000000000000000000000006
:203ebc000000000000000000000000000000000000000000000000020000000000000800dc
:163edc00000000000000400000000000000000000000020000008e
:203ef2000000000000000000000000000000000000000000000000000000000000000000b0
:203f120000000000000000000000000000000000000000000000000000000000000000008f
:173f3200000000000000000000000000000000000000000000000078
:203f4900000000000000000000000000000000000000000000000000000000000000000058
:203f690000000000000000000000000000800000000000000000000005000000000000149f
:163f890000000000000000000000000000000000000000008000a2
:203f9f00000000000000000000000000000000000000000000000000000000000000000002
:203fbf00000000000000000000000000000c00000000000000040000003000001000000191
:173fdf00c00000000000000000000000000000000000000004000007
:203ff6000000000000000000000000000000000000000000000000000000000000000000ab
:2040160000000000000000000000000000000000000000000000000000000000002000006a
:164036000000000000000000000000000000000000000000000074
:20404c00000000000000000000000000000000000000000000000000000000000000000054
:20406c000000000000000000000000000000000000000000000400000000000010004000e0
:17408c0000000000000000000000000000000000000000000000001d
:2040a3000000000000000000000000000000000000000000000000000000000000000000fd
:2040c300000000000000000000000000000000000000000000000081000000000000040058
:1640e30000000000000000000000000000000000000000000000c7
:2040f9000000000000000000000000000000000000000000000000000000000000000000a7
:20411900000000000000000000000000000000000000000000080018000000002001e00065
:17413900000000000000000000000000000600000000000000000069
:20415000000000000c30000000000000000000000000000000000000000000000000000013
:2041700000000000000000000000000000000000000000000000000000000000000000002f
:164190000000000000000000000000000000000000000000000019
:2041a6000000000000c3020000000000000000000000000000000000000000000000000034
:2041c6000000000000000000000000000000000000000000000000000000000000000000d9
:1741e6000000000000000000000000000000000000000000000000c2
:2041fd00000000000c30000000000000000000000000000000000000000000000000000066
:20421d0000000000000000000000000000000000000000000000020000000000000000007f
:16423d000000000000000000000000000000000000020000000069
:204253000000000000c3020000000000000000000000000000000000000000000000000086
:204273000000000000000000000000000000000000000000000001e000000000000000004a
:17429300000000000000000000000000000000000001e00000000033
:2042aa00000000000c300000000000000000000000000000000000000000000000000000b8
:2042ca000000000000000000000000000000000000000000000000000000000000000000d4
:1642ea0000000000000000000000000000000000000000000000be
:204300000000000000c30200000000000000000000000000000000000000000000000000d8
:2043200000000000000000000000000000000000000000000000000000000000000000007d
:17434000000000000000000000000000000000000000000000000066
:20435700000000000c3000000000000000000000000000000000000000000000000000000a
:20437700000000000000000000000000000000000000000000000000000000000000000026
:164397000000000000000000000000000000000000000000000010
:2043ad000000000000c302000000000000000000000000000000000000000000000000002b
:2043cd000000000000000000000000000000000000000000000000000000000000000000d0
:1743ed000000000000000000000000000000000000000000000000b9
:20440400000000000c3000000000000000000000000000000000000000000000000000005c
:2044240000000000000000000000000000000000000000000000000000ff00000000000079
:164444000000000000000000000000000000000000000000000062
:20445a000000000000c302000000000000000000000000000000000000000000000000007d
:20447a00000000000000000000000000000000000000000000000000000ff400020000001d
:17449a0000000000000000000000000000000000000000000000000b
:2044b100000000000c300000000000000000000000000000000000000000000000000000af
:2044d10000000000000000000000000000000000000000000000000000ff000000000000cc
:1644f10000000000000000000000000000000000000000000000b5
:204507000000000000c30200000000000000000000000000000000000000000000000000cf
:20452700000000000000000000000000000000000000000000000000000ff4000000000071
:1745470000000000000000000000000000000000000000000000005d
:20455e00000000000c30000000000000000000000000000000000000000000000000000001
:20457e0000000000000000000000000000000000000000000a00000000ff00000000000014
:16459e000000000000000000000000000000000a000000000000fd
:2045b4000000000000c3020000000000000000000000000000000000000000000000000022
:2045d400000000000000000000000000000000000000000000a00000000ff4000000000024
:1745f40000000000000000000000000000000000a000000000000010
:20460b00000000000c30000000000000000000000000000000000000000000000000000053
:20462b0000000000000000000000000000000000000000000000000000ff00000000000070
:16464b000000000000000000000000000000000000000000ff005a
:204661000000000000c3020000000000000000000000000000000000000000000000000074
:20468100000000000000000000000000000000000000000000000000000ff4000000000016
:1746a10000000000000000000000000000000000000000000ff400ff
:2046b800000000000c300000000000000000000000000000000000000000000000000000a6
:2046d8000000000000000000000000000000000000000000000000000000000100000000c1
:1646f800000000000000000000200000000000000000000000008c
:20470e000000000000c30200000000000000000000000000000000000000000000000000c6
:20472e0000000000000000000000000000000000000000000000000000000000200000004b
:17474e00000000000000000000010000000000000000000000000053
:20476500000000000c300000000000000000000000000000000000000000000000000000f8
:20478500000000000000000000000000000000000000000000000000000000000000000014
:1647a50000000000000000000000000000000000000000000000fe
:2047bb000000000000c3020000000000000000000000000000000000000000000000000019
:2047db000000000000000000000000000000000000000000000000000000000000000000be
:1747fb000000000000000000000000000000000000000000000000a7
:20481200000000000c3000000000000000000000000000000000000000000000000000004a
:20483200000000000000000000000000000000000000000000000000000000000000000066
:164852000000000000000000000000000000000000000000000050
:204868000000000000c302000000000000000000000000000000000000000000000000006b
:20488800000000000000000000000000000000000000000000000000000000000000000010
:1748a8000000000000000000000000000000000000000000000000f9
:2048bf00000000000c3000000000000000000000000000000000000000000000000000009d
:2048df000000000000000000000000000000000000000000000000000000000000000000b9
:1648ff0000000000000000000000000000000000000000000000a3
:204915000000000000c30200000000000000000000000000000000000000000000000000bd
:20493500000000000000000000000000000000000000000000000000000000000000000062
:1749550000000000000000000000000000000000000000000000004b
:20496c00000000000c300000000000000000000000000000000000000000000000000000ef
:20498c00000000000000000000000000000000000000000000003c000000000000000000cf
:1649ac0000000000000000000000000000000000000000000000f5
:2049c2000000000000c3020000000000000000000000000000000000000000000000000010
:2049e2000000000000000000000000000000000000000000000002000000000000000000b3
:174a020000000000000000000000000000000000000000000000009d
:204a1900000000000c30000000000000000000000000000000000000000000000000000041
:204a390000000000000000000000000000000000000000000000000000000000000000005d
:164a59000000000000000000000000000000000000000000000047
:204a6f000000000000c3020000000000000000000000000000000000000000000000000062
:204a8f00000000000000000000000000000000000000000000000000000000000000000007
:174aaf000000000000000000000000000000000000000000000000f0
:204ac600000000000c30000000000000000000000000000000000000000000000000000094
:204ae6000000000000000000000000000000000000000000080000000000000000000000a8
:164b06000000000000000000000000000000000000000000000099
:204b1c000000000000c30200000000000000000000000000000000000000000000000000b4
:204b3c00000000000000000000000000000000000000000000a000000000000000000000b9
:174b5c00000000000000000000000000000000000000000000000042
:204b7300000000000c300000000000000000000000000000000000000000000000000000e6
:204b930000000000000000000000000000000000000000000000000000f000000000000012
:164bb30000000000000000000000000000000000000000000000ec
:204bc9000000000000c3020000000000000000000000000000000000000000000000000007
:204be90000000000000000000000000000000000000000000000000001af041000000000e8
:174c0900000000000000000000000000000000000000000000000094
:204c2000000000000c30000000000000000000000000000000000000000000000000000038
:204c4000000000000000000000000000000000000000000000000000000000000000000054
:164c6000000000000000000000000000000000000000000000003e
:204c76000000000000c3020000000000000000000000000000000000000000000000000059
:204c96000000000000000000000000000000300000000000000000000000000000000000ce
:174cb6000000000000000000000000000000000000000000000000e7
:204ccd00000000000c3000000000000000000000000000000000000000000000000000008b
:204ced000000000000000000000000000000000000000000000000000000000000000000a7
:164d0d000000000000000000000000000000000000000000000090
:204d23000000000000c30200000000000000000000000000000000000000000000000000ab
:204d4300000000000000000000000000000000003000000000000000000000000000000020
:174d6300000000000000000000000000000000000000000000000039
:204d7a00000000000c300000000000000000000000000000000000000000000000000000dd
:204d9a000000000000000000000000000000000000000000000000000000000000000000f9
:164dba0000000000000000000000000000000000000000000000e3
:204dd0000000000000c30200000000000000000000000000000000000000000000000000fe
:204df0000000000000000000000000000000000000000000000000000000000000000000a3
:174e100000000000000000000000000000000000000000000000008b
:204e2700000000000c3000000000000000000000000000000000000000000000000000002f
:204e470000000000000000000000000000000000000000000000000000000000000000004b
:164e67000000000000000000000000000000000000000000000035
:204e7d000000000000c3020000000000000000000000000000000000000000000000000050
:204e9d000000000000000000000000000000000000000000000000000000000000000000f5
:174ebd000000000000000000000000000000000000000000000000de
:204ed400000000000c30000000000000000000000000000000000000000000000000000082
:204ef40000000000000000000000000000000000000000000000000000000000000000009e
:164f14000000000000000000000000000000000000000000000087
:204f2a000000000000c30200000000000000000000000000000000000000000000000000a2
:204f4a00000000000000000000000000000000000000000000000000000000000000000047
:174f6a00000000000000000000000000000000000000000000000030
:204f8100000000000c300000000000000000000000000000000000000000000000000000d4
:204fa1000000000000000000000000000000000100000000000000000000000000000000ef
:164fc10000000000000000000000000000000000000000000000da
:204fd7000000000000c30200000000000000000000000000000000000000000000000000f5
:204ff70000000000000000000000000000000000800000000000000000000000000000001a
:17501700000000000000000000000000000000000000000000000082
:20502e00000000000c30000000000000000000000000000000000000000000000000000026
:20504e000000000000000000000000000002000000000000004000000000000100000000ff
:16506e00000000000000000000000000000000000000000000002c
:205084000000000000c3020000000000000000000000000000000000000000000000000047
:2050a4000000000000000000000000000000280000000000000200000000000008000000ba
:1750c4000000000000000000000000000000000000000000000000d5
:2050db00000000000c30000000000000000000000000000000000000000000000000000079
:2050fb000000000000000000000000000000000000700141000000000000000000000000e3
:16511b00000000000000000000000000000000000000000000007e
:205131000000000000c3020000000000000000000000000000000000000000000000000099
:205151000000000000000000000000000000000000052141200000000000000000000000b7
:17517100000000000000000000000000000000000000000000000027
:20518800000000000c300000000000000000000000000000000000000000000000000000cb
:2051a80000000000000000000000000000000001000803c200000000000000000000000019
:1651c80000000000000000000000000000000008100000000000b9
:2051de000000000000c30200000000000000000000000000000000000000000000000000ec
:2051fe00000000000000000000000000000030008187a3c3000000000000000000000000f3
:17521e0000000000000000000000000000000000c0000000000000b9
:20523500000000000c30000000000000000000000000000000000000000000001400000009
:20525500000000000000000000000000000004010c0803c20000000000000000000000005b
:165275000000000000000000000000000000000000000000000023
:20528b000000000000c30200000000000000000000000000000000000000000000800000be
:2052ab00000000000000000000000000000000009805a3c3020000000000000000000000de
:1752cb000000000000000000000000000000000000000000000000cc
:2052e200000000000c30000000000000000000000000000000000000000000000000000070
:205302000000000000000000000000000000000000f00140600000000000000000000000fa
:165322000000000000000000000000000000000000000000000075
:205338000000000000c3020000000000000000000000000000000000000000000000000090
:20535800000000000000000000000000000000400005a1430001000000000000000000000b
:17537800000000000000000000000000000000000114000000000009
:20538f00000000000c300000000000000000000000000000000000000000000000000000c2
:2053af00000000000000000000000000000000000cb00142200000000000000000000000bf
:1653cf0000000000000000000000000000000000000000000000c8
:2053e5000000000000c30200000000000000000000000000000000000000000000000000e3
:20540500000000000000000000000000000000000007a1430000000000000000000000009c
:1754250000000000000000000000000000000000000003000000006d
:20543c00000000000c30000000000000000000000000000000000000000000000000000014
:20545c000000000000000000000000000000000008f80140200200000000000000000000cd
:16547c00000000000000000000000000000000000000000000001a
:205492000000000000c3020000000000000000000000000000000000000000000000000035
:2054b200000000000000000000000000000000001815214320000000000000000000000029
:1754d2000000000000000000000000000000000000000000000000c3
:2054e900000000000c30000000000000000000000000000000000000000000100000000057
:2055090000000000000000000000000000000000080803c02000000000000000000000008f
:1655290000000000000000000002800000000000000000000000ea
:20553f000000000000c3020000000000000000000000000000000000000000010000000086
:20555f0000000000000000000000000000000000019523c320000000000000000000000090
:17557f00000002000000000000000000000000000000000000000013
:20559600000000000c300000000000000000000000000000000000000000000000000000b9
:2055b60000000000000000000000000000020000000003c000000000000000000000000010
:1655d60000000000000000000000000000000008000000000000b7
:2055ec000000000000c30200000000000000000000000000000000000000000000000000da
:20560c0000000000000000000000000000002800000723c320000000000000000000000049
:17562c0000000000000000000000000000000000a0000000000000c7
:20564300000000000c3000000000000000000000000000000000000000000000000000000b
:2056630000000000000000000000000000000000000003c140000000000000000000000023
:165683000000000000000000000000000000000000042069db04a5
:205699004000000000c30200000000000000000000000000000000000000000000000000ec
:2056b90000000000000000000000000000000000000723c3200000000000000000000000c4
:1756d9000000000000000000000000000000000000c2000c8e34002a
:2056f000000000000000000000000000000000000000000000400000000000010000000059
:205710000000040000000000000000000000040100980142081000400000002040000000dd
:165730000000810000000f000000000000000000101c002a00007d
:20574600000000000000000000000000000000000000000000000000000000000000000043
:2057660000000000000000000000000000003000998fa14300c0000600000003000000001e
:1757860000000c0000000ef040300000000000000002000e0008007a
:20579d000000000000000000000000000000000000000000000000000000000000000000ec
:2057bd0000000000000000000000000000000400000803c200002400000000004031000066
:1657dd0000000008220fbdd2000400000000000000003c2d000081
:2057f300000000000000000000000000000000000000000000000000000000000000000096
:20581300000000000000000000000000000000000005a3c3040002000000000000081e00de
:175833000000000144006f7700004000000000000100005610080084
:20584a0000000000000000000000000000000000000000000000000000000000000000003e
:20586a0000000000000000000000000000000000000003c200000000000000000000000059
:16588a000000080040000000000400000000000010002029000063
:2058a0000000000000000000000000000000000000000000000400000000000010000000d4
:2058c000000000400000000000000000000000400007a3c3000100000000000004000000d6
:1758e000000000100e00000000004000000000000100000e0008003c
:2058f700000000000000000000000000000000000000000000000000000000000000000091
:2059170000000000000000000000000000000000000003c2000000000000000000000003a8
:16593700c02000c24200000000000009000000000000002d000040
:20594d0000000000000000000000000000000000000000000000000000000000000000003a
:20596d00000000000000000000000000000000000007a3c3000000000000000000000003aa
:17598d00bc1000000004000000000000100000000000000610080005
:2059a4000000000000000000000000000000000000000000000000000000000000000000e3
:2059c40000000000000000000000000000000000080803c2000000000000000000000000ee
:1659e4000000000000000a5000000000000000000014242a0000f1
:2059fa0000000000000000000000000000000000000000000000000000000000000000008d
:205a1a0000000000000000000000000000000000501523c300000000000000000000000021
:175a3a0000000000006040a540000000000000000000004e1008006a
:205a5100000000000000000000000000000000000000000000000000000000000000000035
:205a71000000000000000000000000000000000f080803c200000000000000300000000001
:165a91000000c00004000f0000000100000000000024000d0000fa
:205aa7000000000000000000000000000000000000000000000000000000000000000000df
:205ac70000000000000000000000000000000000819523c3000000000000000300000000c0
:175ae70000000400007818f040000080000000000002001e1008002c
:205afe00000000000000000000000000000000000000000000000000000000000000000088
:205b1e0000000000000000000000000000020000000803c008000000000000200000000072
:165b3e00000080000426cdd002000000000000000000002f0000d9
:205b5400000000000000000000000000000000000000000000000000000000000000000031
:205b74000000000000000000000000000000280050a123c380a00000000000028000000070
:175b940000000a000e78dd7720280000000000000000028e00080036
:205bab000000000000000000000000000000000000000000000000000000000000000000da
:205bcb00000000000000000000000000000000000f0283c0000004004fdb044000000000f4
:165beb0000000001c000000000000000b0014100000040000002af
:205c0100000000000000000000000000000000000000000000000000000000000000000083
:205c210000000000000000000000000000000000001567c3800002001c9e340000000000b4
:175c4100000000002060000000000000052141010001460400080011
:205c580000000000000000000000000000000000000000000000000000000000000000002c
:205c78000000000000000000000000000002000700500000000002240c00002000008000e1
:165c98000000000143c00000000001000803c80800000358ff00bc
:205cae000000000000000000000000000000000000000000000000000000000000000000d6
:205cce000000000000000000000000000000300080016a000a0001c0441008030000000071
:175cee0000000000200000000030008001a3c300c0000004e3300091
:205d050000000000000000000000000000000000000000000000000000000000000000007e
:205d25000000000000000000000000000000000000b02000000002002e00000000b88043e3
:165d4500c004000000000000000001000003c800000c3810f00074
:205d5b00000000000000000000000000000000000000000000000000000000000000000028
:205d7b0000000000000000000000000000000100180968000800006016100800000f1c03ba
:175d9b003c100000166800000000009805a3c3000000e3c0ef04008e
:205db2000000000000000000000000000000000000000000000000000000000000000000d1
:205dd200000000000000000000000000000000008db80140000002002c00000000000000fd
:165df20000000a0042800000000000003001480080006400f00082
:205e080000000000000000000000000000000000000000000000000000000000000000007a
:205e28000000000000000000000000000000000038153800000001c01410080000000000e8
:175e480000000000200400000000000005a1430000006641af0400dc
:205e5f00000000000000000000000000000000000000000000000000000000000000000023
:205e7f000000000000000000000000000000000010040140000000002e0000000001f0008f
:165e9f0000000000029df8000000000090014800002636d9ff0049
:205eb5000000000000000000000000000000000000000000000000000000000000000000cd
:205ed5000000000000000000000000000000000001a3e014000001601410080000079e00e3
:175ef50000000000000468000000007807a143000002606fd33000f3
:205f0c00000000000000000000000000000000000000000000000000000000000000000075
:205f2c000000000000000000000000000000000100780000000000282c0000000010050172
:165f4c006800000000000000000287003801400000020000f000e3
:205f620000000000000000000000000000000000000000000000000000000000000000001f
:205f820000000000000000000000000000000000d00d3bd500000000061008000000008074
:175fa200295000008000000000000098052143800001c000ef0400ba
:205fb9000000000000000000000000000000000000000000000000000000000000000000c8
:205fd9000000000000000000000000000000000500000000000000342e000030000000030e
:165ff900c0000001c24d0000000000080803c00400142400f000c3
:20600f00000000000000000000000000000000000000000000000000000000000000000071
:20602f00000000000000000000000000000000000180000000000002de10080300001803ba
:17604f00bc10000020075e80224000019523c340c0020040ef040056
:2060660000000000000000000000000000000000000000000000000000000000000000001a
:206086000000000000000000000000000002000010781400000000380c00002000000fffea
:1660a600b8000002601e04000200000e0003c0080000225cdd0072
:2060bc000000000000000000000000000000000000000000000000000000000000000000c4
:2060dc000000000000000000000000000000280000ad3aa9000020001c100802800000d244
:1760fc001dc000002602d800022800001723c300a001604c87700045
:2061130000000000000000000000000000000000000000000000000000000000000000006c
:2061330000000000000000000000000000000007807ac00000001400000002000000877678
:1661530000400000042d0a000000000a0003c100001420cd0010dc
:20616900000000000000000000000000000000000000000000000000000000000000000016
:206189000000000000000000000000000000000ad0037008000000000c0008000000013755
:1761a9008000000000620a50000000001723c30000036646b0100037
:2061c0000000000000000000000000000000000000000000000000000000008000400000ff
:2061e000000200000000000000000000000200070e00000008001c20000000000000000042
:166200000000000000010050000001007801400000000000f0018c
:206216000000000000000000000000000000000000000000000000000000000c000000005c
:20623600000030000000000000000000000030007000000000c800000000000300000000ad
:176256000000000000005a050030008187a1430004000001cf0400de
:20626d00000000000000000000000000000000000000000000000000000000000004000ffe
:20628d000000280000000000000000000000000b0857774000001c38cddd000000000000aa
:1662ad00000000002400000000000b0a0803c000a000217040085e
:2062c300000000000000000000000000000000000000000000000000000000000000201e7d
:2062e300f040010000e000000000000000000000f0e761dc000000000ff770000000000000
:1763030000000000066000000000009815a3c3000401c04ee00020f7
:20631a00000000000000000000000000000000000000000000000000000000000000000063
:20633a00000000000000000000000000000000001070000000003e3800a5000000000000a8
:16635a000000000000000000000020000003c00040644010050051
:2063700000000000000000000000000000000000000000000000000000000000000000000d
:206390000000000000000000000000000000000001c7b80408000260040a5400000000009d
:1763b00000000000000000000000010005a3c3040a00429da050008d
:2063c7000000000000000000000000000000000000000000000000000000000000000000b6
:2063e700000000000000000000000000000000071d08140000002400000000000000000032
:1664070000000000001ff800000000000003c80000002040fa0043
:20641d0000000000000000000000000000000000000000000000000000000000000000005f
:20643d000000000000000000000000000000000000d3794000000260000000000000000051
:17645d0000000000000058000000000007a3c30000006020cf5314ad
:20647400000000000000000000000000000000000000000000000000000000000000000008
:206494000000000f00000000000000000000000000003c0000001c01cfee000000000000c3
:1664b4000000000800000000000000080803c00400002b7c40000c
:2064ca000000000000000000000000000000000000000000000000000000000000000000b2
:2064ea0000000000000000000000000000000000000033c18000026017c77000020000006c
:17650a000000000140380000000000181523c380c000068d90040087
:20652100000000000000000000000000000000000000000000000000000000c0000000009a
:206541000003000000003c00400000000003000010043c000c00000010f00000001000004c
:166561000000000000000000000001080803c04008002350000095
:206577000000000000000000000000000000000000000000000000000000000c00000000f8
:206597000000300000006bc1000000000000110051803bc1004001e281ef0400000800000b
:1765b7000000000000000000000000f99523c30000016605a5020046
:2065ce0000000000000000000000000000000000000000000000000000000080000000002d
:2065ee00000200000000000000000000000200000f7ffb800800003800f00021000090009f
:16660e000000000004000000020000000003c00800043b7c4000aa
:206624000000000000000000000000000000000000000000000000000000000a000000004c
:206644000000280000000000000000000000280000b9a5dc00a0000040af0402a80001006e
:176664000000000000700000002800000723c300a000000d90040059
:20667b000000000000000000000000000000000000000000000000000000000000000000ff
:20669b000000000000000000000000000000000008bfd00000001c2249dd000000000900db
:1666bb001410000140000000000000000683c0000000035e0000ba
:2066d1000000000000000000000000000000000000000000000000000000000000000000a9
:2066f100000000000000000000000000000000100013f800000002004db77000000000d226
:17671100141000002038000000000000053bc30000014005a1000803
