:020000040800F2
:1000000008040020751400088514000887140008EF
:1000100000000000000000000000000000000000E0
:100020000000000000000000000000008B14000829
:1000300000000000000000008D1400088F1400086C
:1000400067130008B7130008EB13000853140008E7
:100050005F140008B5140008B7140008B9140008AC
:10006000BB140008BD140008BF140008C114000828
:10007000C3140008C5140008C7140008C9140008F8
:10008000CB140008CD140008CF140008D1140008C8
:10009000D3140008D5140008D7140008D914000898
:1000A000DB140008DD140008DF140008E114000868
:1000B000E3140008E5140008E7140008B0480168DC
:1000C000802252020A4302607047AD480068410C2A
:1000D0000800C007C00F7047AA490A6803239A4363
:1000E00002430A607047A74801680C200840704727
:1000F000A4490A68F0239A4302430A607047A14961
:100100000A68A14B134003430B6070479C48016889
:10011000802252040A430260704799480068410EE9
:100120000800C007C00F704730B4964B1C68974D4D
:10013000254005430D431D60BE4B1C680F25AC4395
:1001400014431C6030BC704781B0BB490A6802434D
:100150000A60096801400091009901B0704781B0C0
:10016000B6490A6802430A60096801400091009993
:1001700001B0704781B0B2490A6802430A60096859
:1001800001400091009901B07047AE490A6801230F
:100190009A4302430A607047AA4801680800C007F2
:1001A000C00F7047016840220A43026070474268EE
:1001B00010239A430A43426070474268A24B13409F
:1001C0000B43436070474168082291434160704788
:1001D00081680800C007C00F7047806841080800A8
:1001E000C007C00F70478068C1090800C007C00F72
:1001F0007047C068C0B27047017370470168012240
:100200000A43026070470168802291430160704791
:10021000026A0A4302627047F0B5012901D1002247
:1002200018E0042901D1012214E0102901D1022291
:1002300010E0402901D103220CE0802252009142BB
:1002400001D1042206E08022D200914201D1052290
:1002500000E0062203001833B44C1500EDB2645DD3
:100260001B191D680424CA4E1700FFB2F65DB44086
:10027000A5431D60F0BDF0B5012901D1002218E0B1
:10028000042901D1012214E0102901D1022210E039
:10029000402901D103220CE080225200914201D179
:1002A000042206E08022D200914201D1052200E022
:1002B0000622030018339D4C1500EDB2645D1B1936
:1002C0001D680824B24E1700FFB2F65DB4402C43FF
:1002D0001C60F0BD8268AF4B13400B4383607047D6
:1002E000426870239A430A434260704781688022C3
:1002F0009143816070478162704770B50120FFF7BC
:1003000039FF80204005FFF72AFF00F011F900F0C7
:10031000C1FB00F01BFA00F0EDFA00F03FF900F02D
:10032000B9F900209C490870D348042101600821D4
:1003300001600F2000F0DAF80600D049002000F03C
:10034000DEF8CF4C2100012000F0D9F8CD4D290076
:10035000022000F0D4F8CC49032000F0D0F82900A6
:10036000042000F0CCF8C949052000F0C8F82900A5
:10037000062000F0C4F82100072000F0C0F8FEE7D6
:100380000010024004100240FFF8FFFFFF7FC2FF91
:10039000F1B582B00E006846007AC00080210143AA
:1003A00068464170300080B2000A69460870370024
:1003B0000124B1480460B64D2800FFF70EFF002865
:1003C000F9D0684641782800FFF716FF2800FFF7AC
:1003D000FFFE0028FAD02800FFF70BFF2800FFF7E8
:1003E000FCFE0028FAD0684601782800FFF704FFD9
:1003F0002800FFF7EDFE0028FAD02800FFF7F9FEED
:100400002800FFF7EAFE0028FAD03900C9B2280018
:10041000FFF7F2FE2800FFF7DBFE0028FAD02800E5
:10042000FFF7E7FE2800FFF7DEFE0128FAD0C548F7
:100430000460F7BD2C100240141002401C10024052
:100440001810024000200240FFEFFFFFF8B5C00087
:1004500069464880684647880124874804608C4D77
:100460002800FFF7BAFE0028F9D03900C9B22800E9
:10047000FFF7C2FE2800FFF7ABFE0028FAD02800E5
:10048000FFF7B7FE2800FFF7A8FE0028FAD00021EA
:100490002800FFF7B1FE2800FFF79AFE0028FAD0E7
:1004A0002800FFF7A6FE694608702800FFF795FEB2
:1004B0000028FAD000212800FFF79EFE2800FFF751
:1004C00087FE0028FAD02800FFF793FE06002800D8
:1004D000FFF789FE0128FAD09A4804606846007840
:1004E00000023100C9B2084380B2F2BD10B5040069
:1004F0002000C0B280B2FFF7A9FF80B210BD38B5AE
:1005000005000C002800C0B2092801DB002005000E
:10051000210089B22800C0B2FFF73AFF00208A49C3
:10052000884201DA401CFAE731BD00009C14000843
:1005300010B50120FFF729FEFFF72EFE0128FBD1A1
:10054000FFF7BCFDFFF7C1FD0128FBD10022802190
:10055000C90280204002FFF7E7FDFFF7D7FDFFF754
:10056000DCFD0128FBD10020FFF7C2FD0020FFF7D2
:10057000C6FD0220FFF7B0FDFFF7B5FD0828FBD14F
:10058000DA4C200000F0E5FB200000F0EAFB10BD93
:10059000A4140008F8BFFFFF04000020F8B590B0D5
:1005A0002822002106A800F0E7FB18220021684657
:1005B00000F0E2FB80204001FFF7DCFD802080029C
:1005C000FFF7C2FD20200090022401940327029728
:1005D000002503950494059569469020C00500F018
:1005E00032FC402000900194029703950126049666
:1005F000059569469020C00500F025FC80200090FC
:100600000194029703950495059569469020C005CD
:1006100000F019FC0096019602970395049569462F
:10062000B34800F010FC0695822040000790E020BF
:10063000C000089009940A96802080000B9020202A
:100640000C900D950E9507200F90114C06A92000D7
:1006500000F040FC00212000FFF7A9FD2000FFF77B
:10066000B2FD802149012000FFF7A7FD2000FFF720
:1006700099FD11B0F0BD000028040048701700007B
:10068000204E0000983A000010270000B8880000B3
:1006900000300140F8B590B02822002106A800F0F3
:1006A0006BFB18220021684600F066FB8027FF01E3
:1006B0003800FFF754FD8020C002FFF745FD802081
:1006C00080010090022401940326029600250395E0
:1006D000049405956946864800F0B5FB009701949F
:1006E000029603950120049005956946804800F024
:1006F000AAFB8020000200900194029603950495C5
:10070000059569467A4800F09EFB06950795E0201E
:10071000C000089009950A95802080000B900D95E7
:100720000E9507200F90D54C06A9200000F0D2FBB3
:1007300000212000FFF73BFD2000FFF744FD11B032
:10074000F0BD00001804004840420F00F0B593B01F
:10075000142200210EA800F00FFB2022002106A881
:1007600000F00AFB18220021684600F005FB8020FB
:100770000001FFF7FFFC05206946088700240F945D
:10078000BF4810901194BF4D0EA9280000F0F3FB54
:100790002800FFF738FD00212800FFF79BFD00210E
:1007A0002800FFF79DFD2800FFF7A0FD012128008C
:1007B000FFF761FD7020069007940894C820400060
:1007C00009900A9406AA0121280000F021FC0121C9
:1007D0002800FFF721FD01212800FFF719FD102156
:1007E0002800FFF748FD07940894AF2040000990C7
:1007F00006AA1021280000F00BFC10212800FFF7AA
:100800000BFD10212800FFF703FD80267600310044
:100810002800FFF730FD0794089496208000099087
:1008200006AA3100280000F0F3FB31002800FFF792
:10083000F3FC31002800FFF7EBFC80267601310045
:100840002800FFF718FD07940894C820099006AA0D
:100850003100280000F0DCFB31002800FFF7DCFC51
:1008600031002800FFF7D4FC87480168802212027B
:100870000A43026080208003FFF766FC802080002E
:1008800000900226019602940394049405947F4FED
:100890006946380000F0D7FA8020000100900196E8
:1008A00002940394049405946946380000F0CBFA4E
:1008B0008020800100900196029403940494059492
:1008C0006946380000F0BFFA8020C0010090019610
:1008D00002940394049405946946380000F0B3FA36
:1008E0002800FFF78BFC13B0F0BD0000006CDC02A9
:1008F00000040048F0B593B0142200210EA800F0C7
:100900003BFA2022002106A800F036FA1822002126
:10091000684600F031FA0220FFF721FC0520694605
:10092000088700240F94564810901194584D0EA932
:10093000280000F020FB2800FFF765FC00212800BC
:10094000FFF7C8FC00212800FFF7CAFC2800FFF7CA
:10095000CDFC01212800FFF78EFC70200690079443
:100960000894C820400009900A9406AA0121280092
:1009700000F04EFB01212800FFF74EFC012128006A
:10098000FFF746FC10212800FFF775FC0794089438
:10099000AF204000099006AA1021280000F038FB83
:1009A00010212800FFF738FC10212800FFF730FC49
:1009B00080277F0039002800FFF75DFC079408942A
:1009C00096208000099006AA3900280000F020FB3C
:1009D00039002800FFF720FC39002800FFF718FC39
:1009E0008026760131002800FFF745FC0794089423
:1009F000C820099006AA3100280000F009FB310048
:100A00002800FFF709FC31002800FFF701FC8020D7
:100A10000003FFF799FB4020009002260196029404
:100A20000394049405946946BD4800F00CFA8020B4
:100A30000090019602940394049405946946B84882
:100A400000F001FA0097019602940394049405942F
:100A50006946B34800F0F7F98020800000900196C5
:100A600002940394049405946946AD4800F0EBF9B0
:100A70002800FFF7C3FB13B0F0BD000000380040B2
:100A80001F030000002C0140442C014000100048CE
:100A900000040040F8B586B018220021684600F036
:100AA0006BF98020C003FFF74FFB80208002FFF727
:100AB0004BFB8020C002FFF747FB80208003FFF73D
:100AC00043FB80204003FFF73FFB80200003FFF73C
:100AD0003BFB02219348FFF70EFC04219148FFF7EE
:100AE0000AFC914F80213800FFF705FC8021490066
:100AF0003800FFF700FC8021C9003800FFF7FBFB3E
:100B0000802149013800FFF7F6FB802109023800F7
:100B1000FFF7F1FB8021C9008248FFF7ECFB802141
:100B200049018248FFF7E7FB802189017F48FFF7F1
:100B3000E2FB8021C9017D48FFF7DDFB802109022E
:100B40007A48FFF7D8FB802149009020C005FFF7C5
:100B5000D2FB802189009020C005FFF7CCFB8021CB
:100B6000C9009020C005FFF7C6FB80210901902035
:100B7000C005FFF7C0FB0220009001260196032468
:100B800002940025039504956946664800F05BF9D8
:100B900004200090019602940395049569466148EB
:100BA00000F051F98020009001960294039504957D
:100BB0006946380000F047F9802040000090019617
:100BC0000294039504956946380000F03CF98020B2
:100BD000C000009001960294039504956946380080
:100BE00000F031F9802040010090019602940395B5
:100BF00004956946380000F026F980200002009034
:100C000001960294039504956946380000F01BF99B
:100C10008020C000009001960294039504956946D7
:100C2000404800F010F980204001009001960294A5
:100C30000395049569463D4800F005F98020800140
:100C4000009001960294039504956946374800F098
:100C5000FAF88020C0010090019602940395049553
:100C60006946324800F0EFF88020000200900196BB
:100C700002940395049569462C4800F0E4F880201E
:100C800040000090019602940395049569469020D7
:100C9000C00500F0D8F880208000009001960294F2
:100CA0000395049569469020C00500F0CCF880209B
:100CB000C000009001960294039504956946902027
:100CC000C00500F0C0F88020000100900196029459
:100CD0000395049569469020C00500F0B4F8802083
:100CE0000090019602940395049569460F4800F020
:100CF000AAF808200090019602940395049569468D
:100D0000084800F0A0F81020009001960294039586
:100D100004956946034800F096F807B0F0BD00005E
:100D2000000800480004004800100048000C00487B
:100D300030B504000D002000290000F0BDFA401E6F
:100D40000949086000200949086005200849086031
:100D500030BD10B50400FA2189002000FFF7E8FF3C
:100D600010BD04490860704714E000E018E000E09E
:100D700010E000E00000002010B5040008001100A1
:100D80000200200000F0F0FA200010BD30B403682B
:100D90000C004C4303256C43A3430C004C435443C9
:100DA0001C43046030BC704710B443688B430C0094
:100DB00054431C43446010BC704730B483680C003B
:100DC0004C4303256C43A3430C004C4354431C4346
:100DD000846030BC704730B4C3680C004C430325BA
:100DE0006C43A3430C004C4354431C43C46030BCCD
:100DF000704730B4036A0C004C434C434C430F25FE
:100E00006C43A3430C004C434C434C4354431C439E
:100E1000046230BC704730B4446A0B0A0D0A6B435D
:100E20000D0A6B430D0A6B430F256B439C430B0A62
:100E30000D0A6B430D0A6B430D0A6B435343234367
:100E4000436230BC7047F8B506000C0000252068EE
:100E5000E840002832D020680121A94001400F005D
:100E6000002F29D06068012802D06068022809D1CB
:100E7000A26839003000FFF7A0FFE2682168300067
:100E8000FFF792FF226939003000FFF7A4FF606886
:100E900002280CD1FF2F05D8626939003000FFF716
:100EA000A8FF04E0626939003000FFF7B4FF626810
:100EB00039003000FFF76AFF6D1CC8E70020F2BD63
:100EC000006881090800C007C00F70470A0092B28D
:100ED0000261704770B504000D0001262000FFF785
:100EE000EFFF002827D120681649014028680843F1
:100EF00069680143E8680843296901436869084350
:100F0000A9690143E8690843296A014321606068CF
:100F10000D490140A86808436969090C01436160F3
:100F2000286A80218901884203D1696A2000FFF77D
:100F3000CDFF00200600E06904490140E161300076
:100F4000C0B270BD4000FFFFFBF0FFFFFFF7FFFFE7
:100F500081627047C16270470163704741637047A7
:100F600081637047C1637047016470474169012222
:100F70000A4342617047F8B504000E002568234F0C
:100F8000BC4206D08020C005844202D0364884424C
:100F900004D170208543280075680543BC4212D0F7
:100FA0008020C00584420ED02F4884420BD02F48A9
:100FB000844208D02E48844205D02E48844202D074
:100FC0002D48844203D12D482840F568054325600B
:100FD000B1682000FFF7BEFF31882000FFF7B8FF9F
:100FE000BC4208D02248844205D02248844202D024
:100FF0002148844203D1317C2000FFF7ADFF20005F
:10100000FFF7B4FF0020F2BD00000000002C0140FB
:10101000F8B504000E00170001253000401E08D06E
:101020000F380CD0F03810D0F0210901401A12D03E
:1010300017E03900200000F023F8050011E0390026
:10104000200000F05FF805000BE03900200000F000
:101050009FF8050005E03900200000F0DDF80500EC
:10106000FFE72800C0B2F2BD0004004000200040AD
:10107000004001400044014000480140FFFCFFFFE8
:10108000F8B504000F00206A012188432062206A1D
:101090006668A16903229143702291433A680A432A
:1010A00000920221884339690143012081437D6810
:1010B0000D437948844208D07848844205D0784866
:1010C000844202D07748844212D10820854378694F
:1010D0008000284304218843B9688D000543724984
:1010E0003140B869084371490140F86946000E4330
:1010F00066600098A061F9682000FFF72FFF256265
:101100000020F2BDF8B504000F001020C043216A92
:1011100001402162216A6668A269654B1340654AF5
:101120001A403B681B0213430093202291433A6903
:1011300012010A43104079680D0105435648844264
:1011400008D05648844205D05548844202D05548BC
:10115000844213D18020854378698001284340214F
:101160008843B9688D01054346493140B86980001C
:10117000084345490140F869C6000E43666000987F
:10118000A061F9682000FFF7EBFE25620020F2BDA8
:10119000F8B504000F004448216A01402162216A29
:1011A0006668E26903239A4370239A433B681343BA
:1011B00000933E4A0A4039690902114308407968A0
:1011C0000D0205433448844208D03448844205D097
:1011D0003348844202D03348844213D12A492940FB
:1011E00078698002084327490140B86885020D43A9
:1011F00026493140B8690001084325490140F86992
:1012000046010E4366600098E061F9682000FFF730
:10121000A9FE25620020F2BDF8B504000E001B48AF
:10122000216A01402162216A6568E269204B13400E
:10123000204A1A4033681B0213430093144A0A40A1
:10124000316909031143084071680F0307431248CD
:10125000844208D01148844205D01148844202D00B
:101260001048844204D10B482840B1698D010543E0
:1012700065600098E061F1682000FFF775FE276265
:101280000020F2BDFFFBFFFFFFF7FFFFFFEFFFFFB7
:10129000FFDFFFFFFFBFFFFF002C014000400140C8
:1012A0000044014000480140FFFEFFFFFFFDFFFF3B
:1012B000FFFCFFFFFF8FFFFF0022030A8B420BD2D0
:1012C00003098B4219D243088B422ED2411A00D215
:1012D0000146524110467047FF2209023FD01206D4
:1012E0008B4205D3121209028B4201D3121209025A
:1012F00003098B4219D300E0090AC3098B4201D3C9
:10130000CB01C01A524183098B4201D38B01C01A11
:10131000524143098B4201D34B01C01A5241030988
:101320008B4201D30B01C01A5241C3088B4201D337
:10133000CB00C01A524183088B4201D38B00C01AE4
:10134000524143088B4201D34B00C01A524188429C
:1013500000D3401A5241CFD201461046704708B51B
:1013600000F02AF808BDFEE71206130A1A43130C10
:101370001A4300BF094205D0830705D00270401C04
:10138000491EF9D1704700001300103906D330B45C
:101390001400150010393CC0FCD230BC490700D302
:1013A0000CC000D504C0890002D30280801C002933
:1013B00000D502707047FEE7704730B401220EE09E
:1013C0000368C31844680830144202D04D466D1EAD
:1013D00064191D6825601B1D241D091FF9D10168B2
:1013E000001D0029ECD130BC7047FEE710B507495D
:1013F00079441831064C7C44163404E0081D0A6810
:10140000891888470100A142F8D110BD08000000EA
:1014100018000000A7FFFFFF080000009000000078
:10142000000000200000000000F00DF8002801D0AE
:10143000FFF7DCFF00BF00BF002000BF00BFFEF7CA
:101440005CFF00F002F80120704780B500F002F860
:1014500001BDFEE70746384600F002F8FBE7FEE76D
:1014600080B500BF00BF024A11001820ABBEFBE7E9
:10147000260002000148804701480047E91400089F
:1014800091140008704700B5FEE770477047704739
:1014900000BF00BF00BF00BFFFF7C6FF0000000095
:1014A00004040400000008000000080000127A0094
:1014B00000000000FEE7FEE7FEE7FEE7FEE7FEE7CE
:1014C000FEE7FEE7FEE7FEE7FEE7FEE7FEE7FEE7F4
:1014D000FEE7FEE7FEE7FEE7FEE7FEE7FEE7FEE7E4
:0A14E000FEE7FEE7FEE7FEE77047B7
:04000005080014914A
:00000001FF
