:020000040800F2
:1000000008040020B9120008C9120008CB12000829
:1000100000000000000000000000000000000000E0
:10002000000000000000000000000000CF120008E7
:100030000000000000000000D1120008D3120008E8
:10004000AB110008FB1100082F12000897120008DE
:10005000A3120008F9120008FB120008FD120008A4
:10006000FF1200080113000803130008051300081D
:1000700007130008091300080B1300080D130008EC
:100080000F130008111300081313000815130008BC
:1000900017130008191300081B1300081D1300088C
:1000A0001F1300082113000823130008251300085C
:1000B00027130008291300082B130008A84801681B
:1000C000802252020A4302607047A5480068410C32
:1000D0000800C007C00F7047BA490A6803239A4353
:1000E00002430A607047B74801680C200840704717
:1000F000B4490A68F0239A4302430A607047B14941
:100100000A68B14B134003430B6070479448016881
:10011000802252040A430260704791480068410EF1
:100120000800C007C00F704730B4A64B1C68A74D2D
:10013000254005430D431D60A54B1C680F25AC43AE
:1001400014431C6030BC704781B0A2490A68024366
:100150000A60096801400091009901B0704781B0C0
:100160009D490A6802430A600968014000910099AC
:1001700001B0704781B099490A6802430A60096872
:1001800001400091009901B0704795490A68012328
:100190009A4302430A607047914801680800C0070B
:1001A000C00F7047016840220A43026070474268EE
:1001B00010239A430A43426070474268C04B134081
:1001C0000B43436070474168082291434160704788
:1001D00081680800C007C00F7047806841080800A8
:1001E000C007C00F7047C068C0B270470173704746
:1001F000016801220A43026070470168802291432E
:1002000001607047026A0A4302627047F0B5012933
:1002100001D1002218E0042901D1012214E01029A3
:1002200001D1022210E0402901D103220CE08022FA
:100230005200914201D1042206E08022D200914274
:1002400001D1052200E0062203001833C94C150035
:10025000EDB2645D1B191D680424C74E1700FFB280
:10026000F65DB440A5431D60F0BDF0B5012901D194
:10027000002218E0042901D1012214E0102901D143
:10028000022210E0402901D103220CE0802252001A
:10029000914201D1042206E08022D200914201D194
:1002A000052200E0062203001833B24C1500EDB21F
:1002B000645D1B191D680824AF4E1700FFB2F65D80
:1002C000B4402C431C60F0BD8268AC4B13400B4320
:1002D00083607047426870239A430A4342607047C4
:1002E000816880229143816070478162704780B548
:1002F0000120FFF73FFF80204005FFF730FF00F0AF
:1003000031F800F0E9FA00F043F900F015FA00F0D6
:1003100069F800F0D7F8002099490870994804213D
:1003200001600821016000F001F8FCE738B5012404
:1003300094480460944D2800FFF74FFF0028F9D03F
:1003400081212800FFF752FF2800FFF741FF002816
:10035000FAD02800FFF747FF8C48046031BD000049
:100360000010024010B50120FFF70FFFFFF714FF48
:100370000128FBD1FFF7A2FEFFF7A7FE0128FBD162
:1003800000228021C90280204002FFF7CDFEFFF746
:10039000BDFEFFF7C2FE0128FBD10020FFF7A8FE3B
:1003A0000020FFF7ACFE0220FFF796FEFFF79BFE52
:1003B0000828FBD1DE4C200000F0EDFB200000F00F
:1003C000F2FB10BD04100240FFF8FFFFFF7FC2FFE9
:1003D0002C100240141002401C1002401810024061
:1003E00000200240F8B590B02822002106A800F0B5
:1003F000E5FB18220021684600F0E0FB8020400168
:10040000FFF7B8FE80208002FFF79EFE20200090BC
:10041000022401940327029700250395049405956F
:1004200069469020C00500F030FC40200090019407
:100430000297039501260496059569469020C0050C
:1004400000F023FC8020009001940297039504950E
:10045000059569469020C00500F017FC00960196AE
:100460000297039504956946B24800F00EFC069584
:10047000822040000790E020C000089009940A966E
:10048000802080000B9020200C900D950E95072069
:100490000F903D4C06A9200000F03EFC00212000FA
:1004A000FFF785FE2000FFF78EFE80214901200026
:1004B000FFF783FE2000FFF775FE11B0F0BD0000CE
:1004C000FFEFFFFFF8B590B02822002106A800F04A
:1004D00075FB18220021684600F070FB8027FF01A1
:1004E0003800FFF73CFE8020C002FFF72DFE802081
:1004F00080010090022401940326029600250395B2
:100500000494059569468B4800F0BFFB0097019461
:10051000029603950120049005956946854800F0F0
:10052000B4FB80200002009001940296039504958C
:10053000059569467F4800F0A8FB06950795E020E1
:10054000C000089009950A95802080000B900D95B9
:100550000E9507200F90DA4C06A9200000F0DCFB76
:1005600000212000FFF723FE2000FFF72CFE11B032
:10057000F0BD0000E0120008E8120008F8BFFFFF1D
:1005800004000020280400480030014018040048FE
:10059000F0B593B0142200210EA800F00FFB20222A
:1005A000002106A800F00AFB18220021684600F08E
:1005B00005FB80200001FFF7DDFD05206946088767
:1005C00000240F94BF4810901194BF4D0EA928002D
:1005D00000F0F3FB2800FFF710FE00212800FFF7D2
:1005E00073FE00212800FFF775FE2800FFF778FE54
:1005F00001212800FFF739FE702006900794089427
:10060000C820400009900A9406AA0121280000F0A1
:1006100021FC01212800FFF7F9FD01212800FFF747
:10062000F1FD10212800FFF720FE07940894AF2069
:100630004000099006AA1021280000F00BFC1021B0
:100640002800FFF7E3FD10212800FFF7DBFD8026DF
:10065000760031002800FFF708FE079408949620E2
:100660008000099006AA3100280000F0F3FB310059
:100670002800FFF7CBFD31002800FFF7C3FD8026DF
:10068000760131002800FFF7F0FD07940894C82098
:10069000099006AA3100280000F0DCFB3100280098
:1006A000FFF7B4FD31002800FFF7ACFD8748016873
:1006B000802212020A43026080208003FFF744FD7B
:1006C00080208000009002260196029403940494F6
:1006D00005947F4F6946380000F0D7FA802000016A
:1006E000009001960294039404940594694638009E
:1006F00000F0CBFA802080010090019602940394D0
:10070000049405946946380000F0BFFA8020C001C7
:10071000009001960294039404940594694638006D
:1007200000F0B3FA2800FFF763FD13B0F0BD00003E
:10073000006CDC0200040048F0B593B014220021E4
:100740000EA800F03BFA2022002106A800F036FA9D
:1007500018220021684600F031FA0220FFF7FFFC62
:1007600005206946088700240F945648109011947C
:10077000584D0EA9280000F020FB2800FFF73DFD92
:1007800000212800FFF7A0FD00212800FFF7A2FDAF
:100790002800FFF7A5FD01212800FFF766FD702066
:1007A000069007940894C820400009900A9406AA6D
:1007B0000121280000F04EFB01212800FFF726FD53
:1007C00001212800FFF71EFD10212800FFF74DFD35
:1007D00007940894AF204000099006AA1021280031
:1007E00000F038FB10212800FFF710FD1021280031
:1007F000FFF708FD80277F0039002800FFF735FD4F
:100800000794089496208000099006AA39002800D1
:1008100000F020FB39002800FFF7F8FC3900280021
:10082000FFF7F0FC8026760131002800FFF71DFD60
:1008300007940894C820099006AA3100280000F007
:1008400009FB31002800FFF7E1FC31002800FFF729
:10085000D9FC80200003FFF777FC4020009002269F
:10086000019602940394049405946946BD4800F0EF
:100870000CFA80200090019602940394049405944D
:100880006946B84800F001FA009701960294039473
:10089000049405946946B34800F0F7F9802080007D
:1008A0000090019602940394049405946946AD481F
:1008B00000F0EBF92800FFF79BFC13B0F0BD00003F
:1008C000003800401F030000002C0140442C014070
:1008D0000010004800040040F8B586B0182200213E
:1008E000684600F06BF98020C003FFF72DFC8020E4
:1008F0008002FFF729FC8020C002FFF725FC802042
:100900008003FFF721FC80204003FFF71DFC8020BF
:100910000003FFF719FC02219348FFF7E6FC0421CE
:100920009148FFF7E2FC914F80213800FFF7DDFC92
:10093000802149003800FFF7D8FC8021C900380029
:10094000FFF7D3FC802149013800FFF7CEFC80215E
:1009500009023800FFF7C9FC8021C9008248FFF76F
:10096000C4FC802149018248FFF7BFFC8021890136
:100970007F48FFF7BAFC8021C9017D48FFF7B5FC2D
:10098000802109027A48FFF7B0FC802149009020BD
:10099000C005FFF7AAFC802189009020C005FFF761
:1009A000A4FC8021C9009020C005FFF79EFC802197
:1009B00009019020C005FFF798FC02200090012655
:1009C0000196032402940025039504956946664820
:1009D00000F05BF9042000900196029403950495C1
:1009E0006946614800F051F9802000900196029418
:1009F000039504956946380000F047F980204000CF
:100A0000009001960294039504956946380000F021
:100A10003CF98020C0000090019602940395049553
:100A20006946380000F031F98020400100900196BD
:100A30000294039504956946380000F026F9802059
:100A400000020090019602940395049569463800CF
:100A500000F01BF98020C0000090019602940395DD
:100A600004956946404800F010F98020400100904C
:100A7000019602940395049569463D4800F005F9F6
:100A800080208001009001960294039504956946A8
:100A9000374800F0FAF88020C001009001960294D7
:100AA000039504956946324800F0EFF88020000273
:100AB0000090019602940395049569462C4800F035
:100AC000E4F880204000009001960294039504957C
:100AD00069469020C00500F0D8F880208000009082
:100AE000019602940395049569469020C00500F094
:100AF000CCF88020C00000900196029403950495E4
:100B000069469020C00500F0C0F8802000010090E8
:100B1000019602940395049569469020C00500F063
:100B2000B4F88020009001960294039504956946DC
:100B30000F4800F0AAF8082000900196029403954F
:100B400004956946084800F0A0F81020009001962E
:100B50000294039504956946034800F096F807B09F
:100B6000F0BD0000000800480004004800100048E4
:100B7000000C004830B504000D002000290000F0F2
:100B8000BDFA401E09490860002009490860052097
:100B90000849086030BD10B50400FA218900200022
:100BA000FFF7E8FF10BD04490860704714E000E05B
:100BB00018E000E010E000E00000002010B50400A4
:100BC000080011000200200000F0F0FA200010BD23
:100BD00030B403680C004C4303256C43A3430C0062
:100BE0004C4354431C43046030BC704710B443680A
:100BF0008B430C0054431C43446010BC704730B41A
:100C000083680C004C4303256C43A3430C004C4306
:100C100054431C43846030BC704730B4C3680C003C
:100C20004C4303256C43A3430C004C4354431C43E7
:100C3000C46030BC704730B4036A0C004C434C4372
:100C40004C430F256C43A3430C004C434C434C4393
:100C500054431C43046230BC704730B4446A0B0AEE
:100C60000D0A6B430D0A6B430D0A6B430F256B4353
:100C70009C430B0A0D0A6B430D0A6B430D0A6B4331
:100C800053432343436230BC7047F8B506000C0061
:100C900000252068E840002832D020680121A940C2
:100CA00001400F00002F29D06068012802D0606841
:100CB000022809D1A26839003000FFF7A0FFE268DE
:100CC00021683000FFF792FF226939003000FFF7FA
:100CD000A4FF606802280CD1FF2F05D86269390093
:100CE0003000FFF7A8FF04E0626939003000FFF729
:100CF000B4FF626839003000FFF76AFF6D1CC8E777
:100D00000020F2BD006881090800C007C00F7047CD
:100D10000A0092B20261704770B504000D0001260E
:100D20002000FFF7EFFF002827D120681649014077
:100D30002868084369680143E86808432969014352
:100D400068690843A9690143E8690843296A0143BE
:100D5000216060680D490140A86808436969090C71
:100D600001436160286A80218901884203D1696A50
:100D70002000FFF7CDFF00200600E0690449014094
:100D8000E1613000C0B270BD4000FFFFFBF0FFFF2B
:100D9000FFF7FFFF81627047C162704701637047D0
:100DA0004163704781637047C16370470164704756
:100DB000416901220A4342617047F8B504000E0000
:100DC0002568234FBC4206D08020C005844202D053
:100DD0003648844204D17020854328007568054355
:100DE000BC4212D08020C00584420ED02F488442DD
:100DF0000BD02F48844208D02E48844205D02E487C
:100E0000844202D02D48844203D12D482840F56801
:100E100005432560B1682000FFF7BEFF3188200040
:100E2000FFF7B8FFBC4208D02248844205D02248D0
:100E3000844202D02148844203D1317C2000FFF754
:100E4000ADFF2000FFF7B4FF0020F2BD000000005E
:100E5000002C0140F8B504000E00170001253000F9
:100E6000401E08D00F380CD0F03810D0F021090106
:100E7000401A12D017E03900200000F023F80500D6
:100E800011E03900200000F05FF805000BE03900A8
:100E9000200000F09FF8050005E03900200000F078
:100EA000DDF80500FFE72800C0B2F2BD00040040F5
:100EB0000020004000400140004401400048014043
:100EC000FFFCFFFFF8B504000F00206A01218843F2
:100ED0002062206A6668A1690322914370229143CF
:100EE0003A680A430092022188433969014301208C
:100EF00081437D680D437948844208D07848844214
:100F000005D07848844202D07748844212D1082024
:100F1000854378698000284304218843B9688D009F
:100F2000054372493140B869084371490140F86985
:100F300046000E4366600098A061F9682000FFF744
:100F40002FFF25620020F2BDF8B504000F0010202D
:100F5000C043216A01402162216A6668A269654B2B
:100F60001340654A1A403B681B021343009320223A
:100F700091433A6912010A43104079680D01054313
:100F80005648844208D05648844205D05548844289
:100F900002D05548844213D180208543786980016E
:100FA000284340218843B9688D01054346493140B3
:100FB000B8698000084345490140F869C6000E43FE
:100FC00066600098A061F9682000FFF7EBFE2562DB
:100FD0000020F2BDF8B504000F004448216A01402A
:100FE0002162216A6668E26903239A4370239A4367
:100FF0003B68134300933E4A0A4039690902114392
:10100000084079680D0205433448844208D03448CA
:10101000844205D03348844202D03348844213D1FD
:101020002A49294078698002084327490140B86865
:1010300085020D4326493140B8690001084325491E
:101040000140F86946010E4366600098E061F96866
:101050002000FFF7A9FE25620020F2BDF8B50400CC
:101060000E001B48216A01402162216A6568E2691D
:10107000204B1340204A1A4033681B02134300934D
:10108000144A0A40316909031143084071680F038B
:1010900007431248844208D01148844205D01148C1
:1010A000844202D01048844204D10B482840B169E0
:1010B0008D01054365600098E061F1682000FFF74D
:1010C00075FE27620020F2BDFFFBFFFFFFF7FFFF69
:1010D000FFEFFFFFFFDFFFFFFFBFFFFF002C01401F
:1010E000004001400044014000480140FFFEFFFF76
:1010F000FFFDFFFFFFFCFFFFFF8FFFFF0022030A42
:101100008B420BD203098B4219D243088B422ED259
:10111000411A00D20146524110467047FF2209028F
:101120003FD012068B4205D3121209028B4201D323
:101130001212090203098B4219D300E0090AC309FC
:101140008B4201D3CB01C01A524183098B4201D398
:101150008B01C01A524143098B4201D34B01C01A83
:10116000524103098B4201D30B01C01A5241C308FB
:101170008B4201D3CB00C01A524183088B4201D36A
:101180008B00C01A524143088B4201D34B00C01A56
:101190005241884200D3401A5241CFD201461046F4
:1011A000704708B500F02AF808BDFEE71206130ADA
:1011B0001A43130C1A4300BF094205D0830705D018
:1011C0000270401C491EF9D170470000130010390D
:1011D00006D330B41400150010393CC0FCD230BC2A
:1011E000490700D30CC000D504C0890002D3028097
:1011F000801C002900D502707047FEE7704730B4AC
:1012000001220EE00368C31844680830144202D07B
:101210004D466D1E64191D6825601B1D241D091F88
:10122000F9D10168001D0029ECD130BC7047FEE700
:1012300010B5074979441831064C7C44163404E053
:10124000081D0A68891888470100A142F8D110BD1D
:101250000800000018000000A7FFFFFF08000000C2
:1012600090000000000000200000000000F00DF8D9
:10127000002801D0FFF7DCFF00BF00BF002000BF47
:1012800000BFFFF734F800F002F80120704780B586
:1012900000F002F801BDFEE70746384600F002F80C
:1012A000FBE7FEE780B500BF00BF024A110018202F
:1012B000ABBEFBE72600020001488047014800471B
:1012C0002D130008D5120008704700B5FEE77047DF
:1012D0007047704700BF00BF00BF00BFFFF7C6FFE9
:1012E00000000000040404000000080000000800E2
:1012F00000127A0000000000FEE7FEE7FEE7FEE7CE
:10130000FEE7FEE7FEE7FEE7FEE7FEE7FEE7FEE7B5
:10131000FEE7FEE7FEE7FEE7FEE7FEE7FEE7FEE7A5
:0E132000FEE7FEE7FEE7FEE7FEE7FEE77047AA
:04000005080012D508
:00000001FF
