:020000040800F2
:1000000008040020F5160008051700080717000867
:1000100000000000000000000000000000000000E0
:100020000000000000000000000000000B170008A6
:1000300000000000000000000D1700080F17000866
:10004000E7150008371600086B160008D3160008DD
:10005000DF160008351700083717000839170008A1
:100060003B1700083D1700083F170008411700081C
:1000700043170008451700084717000849170008EC
:100080004B1700084D1700084F17000851170008BC
:10009000531700085517000857170008591700088C
:1000A0005B1700085D1700085F170008611700085C
:1000B0006317000865170008671700088C48016877
:1000C000802252020A430260704789480068410C4E
:1000D0000800C007C00F704786490A6803239A4387
:1000E00002430A607047834801680C20084070474B
:1000F00080490A68F0239A4302430A6070477D49A9
:100100000A68BF4B134003430B607047784801688F
:10011000802252040A430260704775480068410E0D
:100120000800C007C00F704730B4724B1C68B54D53
:10013000254005430D431D60B34B1C680F25AC43A0
:1001400014431C6030BC704781B0B0490A68024358
:100150000A60096801400091009901B0704781B0C0
:10016000AB490A6802430A6009680140009100999E
:1001700001B0704781B0A7490A6802430A60096864
:1001800001400091009901B07047CC490A680123F1
:100190009A4302430A607047C84801680800C007D4
:1001A000C00F7047016840220A43026070474268EE
:1001B00010239A430A43426070474268C04B134081
:1001C0000B43436070474168082291434160704788
:1001D00081680800C007C00F7047806841080800A8
:1001E000C007C00F70478068C1090800C007C00F72
:1001F0007047C068C0B27047017370470168012240
:100200000A43026070470168802291430160704791
:10021000026A0A4302627047F0B5012901D1002247
:1002200018E0042901D1012214E0102901D1022291
:1002300010E0402901D103220CE0802252009142BB
:1002400001D1042206E08022D200914201D1052290
:1002500000E0062203001833C24C1500EDB2645DC5
:100260001B191D680424C04E1700FFB2F65DB44090
:10027000A5431D60F0BDF0B5012901D1002218E0B1
:10028000042901D1012214E0102901D1022210E039
:10029000402901D103220CE080225200914201D179
:1002A000042206E08022D200914201D1052200E022
:1002B000062203001833AB4C1500EDB2645D1B1928
:1002C0001D680824A84E1700FFB2F65DB4402C4309
:1002D0001C60F0BD4163704781637047C163704724
:1002E000016470478268B14B13400B4383607047D1
:1002F0000010024004100240426870239A430A43EF
:1003000042607047816880229143816070478162BA
:10031000704770B50120FFF72DFF80204005FFF7E3
:100320001EFF00F047FA00F0F5FC00F04BFB00F078
:1003300023FC00F071FA00F0E7FA00209C490870F5
:100340009C4804210160082101607D2201210020D8
:1003500000F03EF90F2000F009F906009649002050
:1003600000F00DF9954C2100012000F008F9944DA2
:100370002900022000F003F99249032000F0FFF861
:100380002900042000F0FBF88F49052000F0F7F861
:100390002900062000F0F3F82100072000F0EFF814
:1003A000C8256D002A000121002000F011F99624D3
:1003B000640022000021012000F00AF964220121DA
:1003C000022000F005F92A000021032000F000F9C6
:1003D00022000121042000F0FBF864220021052006
:1003E00000F0F6F8962292000121062000F0F0F8C5
:1003F000AF2292000021072000F0EAF8FEE700009B
:10040000FFF8FFFFFF7FC2FF2C10024014100240D4
:100410001C10024018100240F1B582B00E00684670
:10042000007AC0008021014368464170300080B2EC
:10043000000A69460870370001245E480460634D75
:100440002800FFF7CAFE0028F9D068464178280046
:10045000FFF7D2FE2800FFF7BBFE0028FAD02800E5
:10046000FFF7C7FE2800FFF7B8FE0028FAD068465D
:1004700001782800FFF7C0FE2800FFF7A9FE00283A
:10048000FAD02800FFF7B5FE2800FFF7A6FE0028E7
:10049000FAD03900C9B22800FFF7AEFE2800FFF7F6
:1004A00097FE0028FAD02800FFF7A3FE2800FFF7E8
:1004B0009AFE0128FAD0BE480460F7BD0020024031
:1004C000FFEFFFFFF8B5C0006946488068464788DF
:1004D0000124384804603D4D2800FFF77EFE0028C7
:1004E000F9D03900C9B22800FFF786FE2800FFF7CF
:1004F0006FFE0028FAD02800FFF77BFE2800FFF7E8
:100500006CFE0028FAD000212800FFF775FE2800B5
:10051000FFF75EFE0028FAD02800FFF76AFE694662
:1005200008702800FFF759FE0028FAD000212800A3
:10053000FFF762FE2800FFF74BFE0028FAD02800E4
:10054000FFF757FE06002800FFF74DFE0128FAD0FE
:10055000974804606846007800023100C9B2084339
:1005600080B2F2BD1C1700082417000810B5040063
:100570002000C0B280B2FFF7A5FF80B210BD38B531
:1005800005000C002800C0B2092801DB002005008E
:10059000210089B22800C0B2FFF73EFF00209D492C
:1005A000884201DA401CFAE731BD0000F8BFFFFFC6
:1005B000040000202804004870170000204E0000AE
:1005C000983A000010270000B88800000030014071
:1005D00070B505000C0016002800C0B2002819D123
:1005E000310089B2C348FFF775FE2000C0B2002871
:1005F00008D18020C001C049086080200002BF49A6
:10060000086007E080200002BD4908608020C0012A
:10061000BC4908602800C0B2012819D1310089B254
:10062000B448FFF759FE2000C0B2002808D180204E
:100630004001B149086080208001B049086007E0AE
:1006400080208001AD49086080204001AA490860EF
:100650002800C0B2022819D1310089B2A548FFF79D
:100660003DFE2000C0B2002808D180204000A549EE
:10067000086080208000A249086007E08020800098
:100680009F490860802040009E4908602800C0B251
:10069000032819D1310089B29648FFF721FE2000C6
:1006A000C0B2002808D18020400096490860802010
:1006B00080009349086007E08020C00090490860EE
:1006C000802000018F4908602800C0B2042815D19D
:1006D000310089B2CB48FFF7FDFD2000C0B20028F1
:1006E00006D10420324908600220B349086005E0C1
:1006F0000220B149086004202D4908602800C0B2DA
:10070000052817D1310089B2BE48FFF7E5FD20006A
:10071000C0B2002807D180204000A849086080208E
:10072000A749086006E08020A549086080204000B5
:10073000A24908602800C0B2062819D1310089B248
:10074000B048FFF7CBFD2000C0B2002808D18020C0
:1007500040019A4908608020C0009949086007E07C
:100760008020C000964908608020400193490860BD
:100770002800C0B2072819D1310089B2A148FFF77B
:10078000AFFD2000C0B2002808D18020C000084979
:100790000860802000028A49086007E0802000028B
:1007A000874908608020C0000149086070BD0000D2
:1007B0001804004810B50120FFF7E7FCFFF7ECFC38
:1007C0000128FBD1FFF77AFCFFF77FFC0128FBD162
:1007D00000228021C90280204002FFF7A5FCFFF71C
:1007E00095FCFFF79AFC0128FBD10020FFF780FC65
:1007F0000020FFF784FC0220FFF76EFCFFF773FC7C
:100800000828FBD1D94C200000F0E3FB200000F0C9
:10081000E8FB10BD40420F00F8B590B0282200213F
:1008200006A800F0E9FB18220021684600F0E4FB6E
:1008300080204001FFF79EFC80208002FFF784FCAF
:10084000202000900224019403270297002503959D
:100850000494059569469020C00500F034FC4020C2
:100860000090019402970395012604960595694628
:100870009020C00500F027FC802000900194029792
:1008800003950495059569469020C00500F01BFC72
:10089000009601960297039504956946B44800F0C6
:1008A00012FC0695822040000790E020C0000890CE
:1008B00009940A96802080000B9020200C900D95C2
:1008C0000E9507200F90AB4C06A9200000F042FCCB
:1008D00000212000FFF76BFC2000FFF774FC802153
:1008E00049012000FFF769FC2000FFF75BFC11B015
:1008F000F0BD000000040040180C0048280C00481F
:100900002800004818000048F8B590B028220021BF
:1009100006A800F071FB18220021684600F06CFB6D
:100920008027FF013800FFF71AFC8020C002FFF784
:100930000BFC802080010090022401940326029683
:1009400000250395049405956946894800F0BBFB92
:10095000009701940296039501200490059569463D
:10096000834800F0B0FB80200002009001940296C2
:1009700003950495059569467D4800F0A4FB06950E
:100980000795E020C000089009950A958020800016
:100990000B900D950E9507200F90D94C06A92000BD
:1009A00000F0D8FB00212000FFF701FC2000FFF73A
:1009B0000AFC11B0F0BD00002804004818100048DF
:1009C00028100048F0B593B0142200210EA800F0C2
:1009D00013FB2022002106A800F00EFB18220021A4
:1009E000684600F009FB80200001FFF7C3FB0520EB
:1009F0006946088700240F94C24810901194014D55
:100A000002E000BF002C01400EA9280000F0F3FB1B
:100A10002800FFF7F8FB00212800FFF763FC002106
:100A20002800FFF769FC2800FFF76CFC0121280073
:100A3000FFF721FC7020069007940894C82040001E
:100A400009900A9406AA0121280000F021FC012146
:100A50002800FFF7E1FB01212800FFF7D9FB102157
:100A60002800FFF708FC07940894AF204000099085
:100A700006AA1021280000F00BFC10212800FFF727
:100A8000CBFB10212800FFF7C3FB80267600310046
:100A90002800FFF7F0FB0794089496208000099047
:100AA00006AA3100280000F0F3FB31002800FFF710
:100AB000B3FB31002800FFF7ABFB80267601310045
:100AC0002800FFF7D8FB07940894C820099006AACD
:100AD0003100280000F0DCFB31002800FFF79CFB10
:100AE00031002800FFF794FB87480168802212023A
:100AF0000A43026080208003FFF726FB80208000ED
:100B000000900226019602940394049405947F4F6A
:100B10006946380000F0D7FA802000010090019665
:100B200002940394049405946946380000F0CBFACB
:100B3000802080010090019602940394049405940F
:100B40006946380000F0BFFA8020C001009001968D
:100B500002940394049405946946380000F0B3FAB3
:100B60002800FFF74BFB13B0F0BD0000006CDC0267
:100B70000004004800300140F0B593B01422002179
:100B80000EA800F039FA2022002106A800F034FA5D
:100B900018220021684600F02FFA0220FFF7DFFA42
:100BA00005206946088700240F9456481090119438
:100BB000574D0EA9280000F01EFB2800FFF723FB6D
:100BC00000212800FFF78EFB00212800FFF794FB8F
:100BD0002800FFF797FB01212800FFF74CFB70204E
:100BE000069007940894C820400009900A9406AA29
:100BF0000121280000F04CFB01212800FFF70CFB2D
:100C000001212800FFF704FB10212800FFF733FB28
:100C100007940894AF204000099006AA10212800EC
:100C200000F036FB10212800FFF7F6FA102128000B
:100C3000FFF7EEFA80277F0039002800FFF71BFB43
:100C40000794089496208000099006AA390028008D
:100C500000F01EFB39002800FFF7DEFA39002800FB
:100C6000FFF7D6FA8026760131002800FFF703FB54
:100C700007940894C820099006AA3100280000F0C3
:100C800007FB31002800FFF7C7FA31002800FFF703
:100C9000BFFA80200003FFF757FA40200090022699
:100CA000019602940394049405946946BC4800F0AC
:100CB0000AFA80200090019602940394049405940B
:100CC0006946B74800F0FFF9009701960294039433
:100CD000049405946946B24800F0F5F9802080003C
:100CE0000090019602940394049405946946AC48DC
:100CF00000F0E9F92800FFF781FA13B0F0BD000019
:100D0000003800401F030000442C01400010004840
:100D100000040040F8B586B018220021684600F0B3
:100D20006BF98020C003FFF70FFA80208002FFF7E5
:100D30000BFA8020C002FFF707FA80208003FFF73C
:100D400003FA80204003FFF7FFF980200003FFF73C
:100D5000FBF902219348FFF7DAFA04219148FFF7E3
:100D6000D6FA914F80213800FFF7D1FA802149004F
:100D70003800FFF7CCFA8021C9003800FFF7C7FA26
:100D8000802149013800FFF7C2FA802109023800AA
:100D9000FFF7BDFA8021C9008248FFF7B8FA802129
:100DA00049018248FFF7B3FA802189017F48FFF7A4
:100DB000AEFA8021C9017D48FFF7A9FA8021090216
:100DC0007A48FFF7A4FA802149009020C005FFF778
:100DD0009EFA802189009020C005FFF798FA8021B3
:100DE000C9009020C005FFF792FA802109019020E8
:100DF000C005FFF78CFA022000900126019603241B
:100E000002940025039504956946664800F05BF955
:100E10000420009001960294039504956946614868
:100E200000F051F9802000900196029403950495FA
:100E30006946380000F047F9802040000090019694
:100E40000294039504956946380000F03CF980202F
:100E5000C0000090019602940395049569463800FD
:100E600000F031F980204001009001960294039532
:100E700004956946380000F026F9802000020090B1
:100E800001960294039504956946380000F01BF919
:100E90008020C00000900196029403950495694655
:100EA000404800F010F98020400100900196029423
:100EB0000395049569463D4800F005F980208001BE
:100EC000009001960294039504956946374800F016
:100ED000FAF88020C00100900196029403950495D1
:100EE0006946324800F0EFF8802000020090019639
:100EF00002940395049569462C4800F0E4F880209C
:100F00004000009001960294039504956946902054
:100F1000C00500F0D8F8802080000090019602946F
:100F20000395049569469020C00500F0CCF8802018
:100F3000C0000090019602940395049569469020A4
:100F4000C00500F0C0F880200001009001960294D6
:100F50000395049569469020C00500F0B4F8802000
:100F60000090019602940395049569460F4800F09D
:100F7000AAF808200090019602940395049569460A
:100F8000084800F0A0F81020009001960294039504
:100F900004956946034800F096F807B0F0BD0000DC
:100FA000000800480004004800100048000C0048F9
:100FB00030B504000D002000290000F0BDFA401EED
:100FC00009490860002009490860052008490860AF
:100FD00030BD10B50400FA2189002000FFF7E8FFBA
:100FE00010BD04490860704714E000E018E000E01C
:100FF00010E000E00000002010B50400080011001F
:101000000200200000F0F0FA200010BD30B40368A8
:101010000C004C4303256C43A3430C004C43544346
:101020001C43046030BC704710B443688B430C0011
:1010300054431C43446010BC704730B483680C00B8
:101040004C4303256C43A3430C004C4354431C43C3
:10105000846030BC704730B4C3680C004C43032537
:101060006C43A3430C004C4354431C43C46030BC4A
:10107000704730B4036A0C004C434C434C430F257B
:101080006C43A3430C004C434C434C4354431C431C
:10109000046230BC704730B4446A0B0A0D0A6B43DB
:1010A0000D0A6B430D0A6B430F256B439C430B0AE0
:1010B0000D0A6B430D0A6B430D0A6B4353432343E5
:1010C000436230BC7047F8B506000C00002520686C
:1010D000E840002832D020680121A94001400F00DB
:1010E000002F29D06068012802D06068022809D149
:1010F000A26839003000FFF7A0FFE26821683000E5
:10110000FFF792FF226939003000FFF7A4FF606803
:1011100002280CD1FF2F05D8626939003000FFF793
:10112000A8FF04E0626939003000FFF7B4FF62688D
:1011300039003000FFF76AFF6D1CC8E70020F2BDE0
:10114000006881090800C007C00F70470A0092B20A
:101150000261704770B504000D0001262000FFF702
:10116000EFFF002827D1206816490140286808436E
:1011700069680143E86808432969014368690843CD
:10118000A9690143E8690843296A0143216060684D
:101190000D490140A86808436969090C0143616071
:1011A000286A80218901884203D1696A2000FFF7FB
:1011B000CDFF00200600E06904490140E1613000F4
:1011C000C0B270BD4000FFFFFBF0FFFFFFF7FFFF65
:1011D00081627047C1627047016370474163704725
:1011E00081637047C16370470164704741690122A0
:1011F0000A4342617047F8B504000E002568234F8A
:10120000BC4206D08020C005844202D036488442C9
:1012100004D170208543280075680543BC4212D074
:101220008020C00584420ED02F4884420BD02F4826
:10123000844208D02E48844205D02E48844202D0F1
:101240002D48844203D12D482840F5680543256088
:10125000B1682000FFF7BEFF31882000FFF7B8FF1C
:10126000BC4208D02248844205D02248844202D0A1
:101270002148844203D1317C2000FFF7ADFF2000DC
:10128000FFF7B4FF0020F2BD00000000002C014079
:10129000F8B504000E00170001253000401E08D0EC
:1012A0000F380CD0F03810D0F0210901401A12D0BC
:1012B00017E03900200000F023F8050011E03900A4
:1012C000200000F05FF805000BE03900200000F07E
:1012D0009FF8050005E03900200000F0DDF805006A
:1012E000FFE72800C0B2F2BD00040040002000402B
:1012F000004001400044014000480140FFFCFFFF66
:10130000F8B504000F00206A012188432062206A9A
:101310006668A16903229143702291433A680A43A7
:1013200000920221884339690143012081437D688D
:101330000D437948844208D07848844205D07848E3
:10134000844202D07748844212D1082085437869CC
:101350008000284304218843B9688D000543724901
:101360003140B869084371490140F86946000E43AD
:1013700066600098A061F9682000FFF72FFF2562E2
:101380000020F2BDF8B504000F001020C043216A10
:1013900001402162216A6668A269654B1340654A73
:1013A0001A403B681B0213430093202291433A6981
:1013B00012010A43104079680D01054356488442E2
:1013C00008D05648844205D05548844202D055483A
:1013D000844213D1802085437869800128434021CD
:1013E0008843B9688D01054346493140B86980009A
:1013F000084345490140F869C6000E4366600098FD
:10140000A061F9682000FFF7EBFE25620020F2BD25
:10141000F8B504000F004448216A01402162216AA6
:101420006668E26903239A4370239A433B68134337
:1014300000933E4A0A40396909021143084079681D
:101440000D0205433448844208D03448844205D014
:101450003348844202D03348844213D12A49294078
:1014600078698002084327490140B86885020D4326
:1014700026493140B8690001084325490140F8690F
:1014800046010E4366600098E061F9682000FFF7AE
:10149000A9FE25620020F2BDF8B504000E001B482D
:1014A000216A01402162216A6568E269204B13408C
:1014B000204A1A4033681B0213430093144A0A401F
:1014C000316909031143084071680F03074312484B
:1014D000844208D01148844205D01148844202D089
:1014E0001048844204D10B482840B1698D0105435E
:1014F00065600098E061F1682000FFF775FE2762E3
:101500000020F2BDFFFBFFFFFFF7FFFFFFEFFFFF34
:10151000FFDFFFFFFFBFFFFF002C01400040014045
:101520000044014000480140FFFEFFFFFFFDFFFFB8
:10153000FFFCFFFFFF8FFFFF0022030A8B420BD24D
:1015400003098B4219D243088B422ED2411A00D292
:101550000146524110467047FF2209023FD0120651
:101560008B4205D3121209028B4201D312120902D7
:1015700003098B4219D300E0090AC3098B4201D346
:10158000CB01C01A524183098B4201D38B01C01A8F
:10159000524143098B4201D34B01C01A5241030906
:1015A0008B4201D30B01C01A5241C3088B4201D3B5
:1015B000CB00C01A524183088B4201D38B00C01A62
:1015C000524143088B4201D34B00C01A524188421A
:1015D00000D3401A5241CFD201461046704708B599
:1015E00000F02AF808BDFEE71206130A1A43130C8E
:1015F0001A4300BF094205D0830705D00270401C82
:10160000491EF9D1704700001300103906D330B4D9
:101610001400150010393CC0FCD230BC490700D37F
:101620000CC000D504C0890002D30280801C0029B0
:1016300000D502707047FEE7704730B401220EE01B
:101640000368C31844680830144202D04D466D1E2A
:1016500064191D6825601B1D241D091FF9D101682F
:10166000001D0029ECD130BC7047FEE710B50749DA
:1016700079441831064C7C44163404E0081D0A688D
:10168000891888470100A142F8D110BD0800000068
:1016900018000000A7FFFFFF0800000090000000F6
:1016A000000000200000000000F00DF8002801D02C
:1016B000FFF7DCFF00BF00BF002000BF00BFFEF748
:1016C00028FE00F002F80120704780B500F002F813
:1016D00001BDFEE70746384600F002F8FBE7FEE7EB
:1016E00080B500BF00BF024A11001820ABBEFBE767
:1016F000260002000148804701480047691700089A
:1017000011170008704700B5FEE770477047704733
:1017100000BF00BF00BF00BFFFF7C6FF0000000012
:1017200004040400000008000000080000127A0011
:1017300000000000FEE7FEE7FEE7FEE7FEE7FEE74B
:10174000FEE7FEE7FEE7FEE7FEE7FEE7FEE7FEE771
:10175000FEE7FEE7FEE7FEE7FEE7FEE7FEE7FEE761
:0A176000FEE7FEE7FEE7FEE7704734
:0400000508001711C7
:00000001FF
